:1000000000308A002D28000022308400831300086D
:10001000031918280130F800F701F70B0D28F80B29
:100020000C284A30F700F70B13281628800B0A28F3
:1000300008001230A202031C2C28223084008313F3
:10004000FC3080050310800C800C000803192C285C
:100050002A280000800B2928080003081F39830084
:10006000A00107309F008313851CC22806121030A0
:10007000A100FA30A2000420A10B3928A001200819
:10008000B93C031C5B2806160A30A2000420073086
:10009000A1006C30A2001920A10B492806120A30D9
:1000A000A20004200730A1006C30A2001920A10B8F
:1000B0005428A00A3F28A00106160230A2000420FE
:1000C0000530A1008830A2001920A10B6228061279
:1000D0000230A20004200530A1008830A2001920BF
:1000E000A10B6D28A00A5C28A00106160130A20011
:1000F00004200230A100AA30A2001920A10B7B2805
:1001000006120130A20004200230A100AA30A20091
:100110001920A10B8628A00A7528A00106160D300B
:10012000A1004230A2001920A10B912806120D3027
:10013000A1004230A2001920A10B9928A00A8E2804
:10014000A0010616DF30F700F70BA428A72800004F
:100150000612DF30F700F70BAB28AE280000A00A2C
:10016000A128A0010616B330F700F70BB528000050
:100170000612B330F700F70BBB280000A00AB22824
:0A0180003628C428851C86016300A0
:02400E00113F60
:00000001FF
;PIC16F628A
;CRC=9562  CREATED="13-jul.-21 13:20"
