:1000000001308A00F82900000A108A100A118207BC
:1000100028340C34013406340A108A100A1182077D
:100020000C344534733470346534723461346E3456
:1000300064346F3420346534723472346F34203455
:1000400065346E34203465346C340A3452344534AB
:1000500047344934533454345234413444344F34A3
:1000600052342034443445342034453456344534F5
:100070004E3454344F34533400340A108A100A1169
:1000800082070C344534723472346F347234203445
:1000900065346E343A340A3400340A108A100A1176
:1000A00082074534523452344F3452345F34303442
:1000B000313431343A3420346C3461342034763481
:1000C000613472346934613462346C3465342034A0
:1000D000583431345F34563454345F34303435342A
:1000E00000340A108A100A118207453452345234FF
:1000F0004F3452345F343034323431343A34203473
:100100006C3461342034763461347234693461344F
:1001100062346C3465342034583437345F345634A8
:1001200054345F343034353400340A108A100A11E4
:1001300082074534523452344F3452345F343034B1
:10014000333431343A3420346C34613420347634EE
:10015000613472346934613462346C34653420340F
:10016000583436345F34563454345F343034353494
:1001700000340A108A100A1182074534523452346E
:100180004F3452345F343034313431343A342034E3
:100190006C346134203476346134723469346134BF
:1001A00062346C3465342034583431345F3456341E
:1001B00054345F34363400340A108A100A1182072E
:1001C0004534523452344F3452345F343034323444
:1001D00031343A3420346C34613420347634613430
:1001E00072346934613462346C3465342034583488
:1001F00037345F34563454345F34363400340A14A0
:100200008A100A1182074534523452344F34523422
:100210005F343034333431343A3420346C34613424
:1002200020347634613472346934613462346C342D
:1002300065342034583436345F34563454345F34A3
:100240003634003423308400831300080319362920
:100250000130F800F701F70B2B29F80B2A294A3057
:10026000F700F70B31293429800B282908002A0EC2
:10027000F039F7000F3006057704860000000614F9
:100280004129061008000608F700060E0F39F8008D
:1002900008008316061086100611831286100F3090
:1002A00083160605F0388600831206150000061432
:1002B000000043217808AA00061000000614000080
:1002C00043217808A90006100F3083160605860022
:1002D00083122A0EF700F030F70577082904F8009A
:1002E0007808A900A91B4F29271C861027188614F7
:1002F0000000061100000610280EA9000F30A90505
:100300002908AA00372128080F39A900AA00372197
:1003100008000F30831606058600061086100611A9
:1003200083128610061106100F30A300222101301F
:10033000A1002108033C031CA5290330AA00372192
:100340000530A3002221A10A99290230AA003721F1
:100350000530A3002221A1012108033C031CB92977
:1003600021080420A200A7012208A8004921A10A0F
:10037000AC29FF29240BBD29C0294030A500C12983
:10038000A50101302302A50725088038A600A70192
:100390002608A800492108002208073A0319DA298B
:1003A0000B3A0319DF29063A0319E729023A031920
:1003B000ED29F2290130A300A400BA21F729A701F1
:1003C0000130A80049210230A3002221F729013081
:1003D000A3000230A400BA21F729A7011030A80019
:1003E0004921F7290130A7002208A8004921080067
:1003F00003081F39830007309F0083138929A10157
:1004000021080C20A10AF700A200CC212C302102E7
:10041000031D002A831605148312051C262AA10138
:1004200021083D20A10AF700A200CC210B302102B7
:10043000031D102AA10121084D20A10AF700A200E6
:10044000CC211F302102031D1B2AB12A83168514DB
:100450008312851C422AA10121083D20A10AF70030
:10046000A200CC210B302102031D2C2AA10121085E
:100470007120A10AF700A200CC211F302102031D28
:10048000372AB12A831605158312051D5E2AA1019C
:1004900021083D20A10AF700A200CC210B30210247
:1004A000031D482AA10121089520A10AF700A200F6
:1004B000CC211F302102031D532AB12A8316851532
:1004C0008312851D7A2AA10121083D20A10AF70087
:1004D000A200CC210B302102031D642AA1012108B6
:1004E000B920A10AF700A200CC211E302102031D71
:1004F0006F2AB12A831605168312051E962AA101BA
:1005000021083D20A10AF700A200CC210B302102D6
:10051000031D802AA1012108DC20A10AF700A20006
:10052000CC211E302102031D8B2AB12A8316851689
:100530008312851EB12AA10121083D20A10AF700DE
:10054000A200CC210B302102031D9C2AA10121080D
:10055000FF20A10AF700A200CC211E302102031DBA
:06056000A72A0A2A63002D
:02400E00613F10
:00000001FF
;PIC16F628A
;CRC=C911  CREATED="14-abr.-21 11:56"
