:100000000C9462000C948A000C948A000C948A0070
:100010000C948A000C948A000C948A000C948A0038
:100020000C948A000C948A000C948A000C948A0028
:100030000C948A000C948A000C948A000C948A0018
:100040000C94B9040C948A000C9487040C946104F9
:100050000C948A000C948A000C948A000C948A00F8
:100060000C948A000C948A000000000024002700F1
:100070002A0000000000250028002B0000000000DE
:1000800023002600290004040404040404040202DA
:100090000202020203030303030301020408102007
:1000A0004080010204081020010204081020000012
:1000B0000008000201000003040700000000000027
:1000C0000000B90911241FBECFEFD8E0DEBFCDBFBD
:1000D00017E0A0E0B1E0E8E9F8E102C005900D9278
:1000E000AC32B107D9F727E0ACE2B7E001C01D920E
:1000F000A23EB207E1F710E0C2E6D0E004C02197CB
:10010000FE010E94440CC136D107C9F70E947A064D
:100110000C944A0C0C940000AF92BF92CF92DF92E5
:10012000EF92FF920F931F93CF93DF936C017B01AC
:100130008B01040F151FEB015E01AE18BF08C0173D
:10014000D10759F06991D601ED91FC910190F081B0
:10015000E02DC6010995892B79F7C501DF91CF9173
:100160001F910F91FF90EF90DF90CF90BF90AF90D5
:100170000895FC01538D448D252F30E0842F90E0AD
:10018000821B930B541710F0CF9608950197089592
:10019000FC01918D828D981761F0A28DAE0FBF2F5B
:1001A000B11D5D968C91928D9F5F9F73928F90E0B1
:1001B00008958FEF9FEF0895FC01918D828D981720
:1001C00031F0828DE80FF11D858D90E008958FEF5D
:1001D0009FEF0895FC01918D228D892F90E0805C26
:1001E0009F4F821B91098F739927089585E497E0AB
:1001F0000E94EA0021E0892B09F420E0822F089573
:1002000080E090E0892B29F00E94F60081110C9487
:1002100000000895FC01A48DA80FB92FB11DA35AA9
:10022000BF4F2C91848D90E001968F739927848F16
:10023000A689B7892C93A089B1898C918370806439
:100240008C93938D848D981306C00288F389E02DDA
:1002500080818F7D80830895EF92FF920F931F938B
:10026000CF93DF93EC0181E0888F9B8D8C8D981369
:100270001AC0E889F989808185FF15C09FB7F89475
:10028000EE89FF896083E889F989808183708064C1
:1002900080839FBF81E090E0DF91CF911F910F910C
:1002A000FF90EF900895F62E0B8D10E00F5F1F4F1B
:1002B0000F731127E02E8C8D8E110CC00FB607FC2A
:1002C000FACFE889F989808185FFF5CFCE010E94B8
:1002D0000A01F1CFEB8DEC0FFD2FF11DE35AFF4F1B
:1002E000F0829FB7F8940B8FEA89FB898081806246
:1002F000CFCFCF93DF93EC01888D8823B9F0AA8903
:10030000BB89E889F9898C9185FD03C0808186FDD0
:100310000DC00FB607FCF7CF8C9185FFF2CF80811F
:1003200085FFEDCFCE010E940A01E9CFDF91CF9189
:100330000895833081F028F4813099F08230A9F05B
:1003400008958730A9F08830C9F08430B1F48091E5
:1003500080008F7D03C0809180008F778093800024
:10036000089584B58F7784BD089584B58F7DFBCFC4
:100370008091B0008F778093B00008958091B00095
:100380008F7DF9CFCF93DF93282F30E0F901E2552D
:10039000FF4F8491F901E656FF4FD491F901EA57D6
:1003A000FF4FC491CC23A1F081110E949901EC2F41
:1003B000F0E0EE0FFF1FE458FF4FA591B491EC91D0
:1003C000ED2381E090E009F480E0DF91CF91089582
:1003D00080E090E0FACF1F93CF93DF93282F30E097
:1003E000F901E255FF4F8491F901E656FF4FD49190
:1003F000F901EA57FF4FC491CC23A9F0162F8111C0
:100400000E949901EC2FF0E0EE0FFF1FEE58FF4F16
:10041000A591B4918FB7F894EC91111108C0D095C3
:10042000DE23DC938FBFDF91CF911F910895DE2BE8
:10043000F8CFCF93DF9390E0FC01E656FF4F249175
:100440008A579F4FFC0184918823D1F090E0880F58
:10045000991FFC01E859FF4FA591B491FC01EE589A
:10046000FF4FC591D49161110EC09FB7F8948C9144
:10047000E22FE0958E238C932881E223E8839FBFAF
:10048000DF91CF9108958FB7F894EC91E22BEC9324
:100490008FBFF6CF3FB7F8948091390790913A0714
:1004A000A0913B07B0913C0726B5A89B05C02F3F04
:1004B00019F00196A11DB11D3FBFBA2FA92F982F8A
:1004C0008827BC01CD01620F711D811D911D42E085
:1004D000660F771F881F991F4A95D1F708958F924D
:1004E0009F92AF92BF92CF92DF92EF92FF926B01F9
:1004F0007C010E944A024B015C01C114D104E10459
:10050000F104B9F00E944A02681979098A099B0925
:10051000683E73408105910580F321E0C21AD1083D
:10052000E108F10888EE880E83E0981EA11CB11C3A
:10053000E4CFFF90EF90DF90CF90BF90AF909F906F
:100540008F900895CF92DF92EF92FF9220E030E0FB
:1005500040EA5FE360914107709142078091430751
:10056000909144070E94580A9B01AC0160E070E042
:100570008AE794E40E94580A6B017C01C0922C0720
:10058000D0922D07E0922E07F0922F0761E083E0D2
:100590000E94EB0120E030E040E05FE3C701B601DC
:1005A0000E94B00B0E94CA0A6B017C010E946F027C
:1005B00060E083E00E94EB01C701B601FF90EF907D
:1005C000DF90CF900C946F02FC0101900020E9F7BE
:1005D0003197AF01481B590BBC0185E497E00C949F
:1005E0008C008F929F92AF92BF920F931F93CF93E5
:1005F000DF93CDB7DEB7A1970FB6F894DEBF0FBE7D
:10060000CDBF19A2423008F44AE08E010F5D1F4FA2
:10061000842E912CB12CA12CA50194010E94220CB6
:10062000E62FB901CA01EA30F4F4E05DD801EE9397
:100630008D01232B242B252B79F790E080E0109758
:1006400019F0CD010E94E402A1960FB6F894DEBF26
:100650000FBECDBFDF91CF911F910F91BF90AF9093
:100660009F908F900895E95CE1CFCF93DF930E9434
:10067000E402EC0182E191E00E94E4028C0F9D1FF4
:10068000DF91CF910895CF92DF92EF92FF92CF93B7
:10069000DF936C01990FEE08FF08F7FE1FC06DE2B3
:1006A00085E497E00E942C01EC0166277727CB01B7
:1006B0006C197D098E099F094AE00E94F102C80F5A
:1006C000D91F82E191E00E94E4028C0F9D1FDF910F
:1006D000CF91FF90EF90DF90CF9008954AE0C7014F
:1006E000B6010E94F102EC01ECCF4F925F926F9243
:1006F0007F928F929F92AF92BF92CF92DF92EF92B2
:10070000FF9220E030E040EA5FE3609141077091A2
:10071000420780914307909144070E94580A2BEDAD
:100720003FE049E450E40E94B00B2FEC37EF43E781
:100730005FE30E94B00B26E636E646E650E40E94F0
:10074000B00B20E030E048EC52E40E94580A6B0104
:100750007C014B015C01C0923D07D0923E07E092C4
:100760003F07F0924007AC019B010E941D0C8823BB
:10077000A1F085E191E00E94E40282E191E0FF9026
:10078000EF90DF90CF90BF90AF909F908F907F9031
:100790006F905F904F900C94E40226013701E8942B
:1007A00077F82FEF3FEF4FE75FE7C301B2010E94F9
:1007B0001D0C81110DC02FEF3FEF4FE75FE7C30125
:1007C000B2010E94530A18161CF489E191E0D3CFBC
:1007D0002FEF3FEF4FE75FE4C701B6010E94AB0B7D
:1007E00018161CF48DE191E0C6CF2FEF3FEF4FE7D5
:1007F0005FECC701B6010E94530A87FDF3CF20E0EA
:1008000030E0A901C701B6010E94530A87FF0BC05F
:100810006DE285E497E00E942C0146015701B7FA8A
:10082000B094B7F8B0942AE037ED43EA5BE3C50132
:10083000B4010E94E7094B015C010E94CA0A6B01E6
:100840007C010E94F90A9B01AC01C501B4010E9420
:10085000E6094B015C014AE0C701B6010E94F102C2
:100860006EE285E497E00E942C0120E030E040E257
:1008700051E4C501B4010E94B00B4B015C010E9420
:10088000CA0A6B01F12CE12C4AE0C701B6010E94B3
:10089000F102C701B6010E94F90A9B01AC01C50132
:1008A000B4010E94E60920E030E040E251E40E94F9
:1008B000B00B0E94CA0A90E080E04AE00E94F10278
:1008C0005CCF1F920F920FB60F9211242F933F937C
:1008D0004F935F936F937F938F939F93AF93BF9348
:1008E000EF93FF9385E497E00E940A01FF91EF9157
:1008F000BF91AF919F918F917F916F915F914F9138
:100900003F912F910F900FBE0F901F9018951F923F
:100910000F920FB60F9211242F938F939F93EF9303
:10092000FF93E0915507F09156078081E0915B07B6
:10093000F0915C0782FD1BC0908180915E078F5F04
:100940008F7320915F07821741F0E0915E07F0E01E
:10095000EB5BF84F958F80935E07FF91EF919F912E
:100960008F912F910F900FBE0F901F90189580813F
:10097000F4CF1F920F920FB60F9211242F933F9333
:100980008F939F93AF93BF938091350790913607D4
:10099000A0913707B09138073091340723E0230F37
:1009A0002D3758F50196A11DB11D20933407809372
:1009B000350790933607A0933707B0933807809197
:1009C000390790913A07A0913B07B0913C070196F7
:1009D000A11DB11D8093390790933A07A0933B075F
:1009E000B0933C07BF91AF919F918F913F912F9111
:1009F0000F900FBE0F901F90189526E8230F0296B8
:100A0000A11DB11DD2CF1092300710923107109264
:100A1000320710923307C0903007D0903107E09032
:100A20003207F090330720E030E040EC50E4C7019B
:100A3000B6010E94530A87FF25C061E08DE00E9445
:100A4000EB0164EF71E080E090E00E946F0260E0F3
:100A50008DE00E94EB0164EF71E080E090E00E9485
:100A60006F0220E030E040E85FE3C701B6010E947A
:100A7000E7096093300770933107809332079093B2
:100A80003307C9CF68EE73E080E090E00E946F0208
:100A9000BACF10923007109231071092320710929D
:100AA0003307C0903007D0903107E0903207F090C4
:100AB000330720E030E040EA50E4C701B6010E946D
:100AC000530A87FF25C061E08DE00E94EB0164EFCF
:100AD00071E080E090E00E946F0260E08DE00E9493
:100AE000EB0164EF71E080E090E00E946F0220E093
:100AF00030E040E85FE3C701B6010E94E709609378
:100B00003007709331078093320790933307C9CF32
:100B100068EE73E080E090E00E946F02BACF10921E
:100B20003007109231071092320710923307C090AD
:100B30003007D0903107E0903207F090330720E083
:100B400030E040E850E4C701B6010E94530A87FF35
:100B500025C061E08DE00E94EB0164EF71E080E070
:100B600090E00E946F0260E08DE00E94EB0164EF74
:100B700071E080E090E00E946F0220E030E040E809
:100B80005FE3C701B6010E94E709609330077093E5
:100B900031078093320790933307C9CF68EE73E033
:100BA00080E090E00E946F02BACF1092300710925E
:100BB00031071092320710923307C0903007D0905F
:100BC0003107E0903207F090330720E030E040E456
:100BD00050E4C701B6010E94530A87FF25C061E0B7
:100BE0008DE00E94EB0164EF71E080E090E00E94F4
:100BF0006F0260E08DE00E94EB0164EF71E080E045
:100C000090E00E946F0220E030E040E85FE3C7011F
:100C1000B6010E94E7096093300770933107809313
:100C2000320790933307C9CF68EE73E080E090E01D
:100C30000E946F02BACF10923007109231071092C3
:100C4000320710923307C0903007D0903107E09000
:100C50003207F090330720E030E040E050E4C70175
:100C6000B6010E94530A87FF25C061E08DE00E9413
:100C7000EB0164EF71E080E090E00E946F0260E0C1
:100C80008DE00E94EB0164EF71E080E090E00E9453
:100C90006F0220E030E040E85FE3C701B6010E9448
:100CA000E709609330077093310780933207909380
:100CB0003307C9CF68EE73E080E090E00E946F02D6
:100CC000BACF84E191E00E94350361E08DE00E949B
:100CD000EB0164EF71E080E090E00E946F0260E061
:100CE0008DE00E94EB0164EF71E080E090E00E94F3
:100CF0006F02EBCF789484B5826084BD84B5816047
:100D000084BD85B5826085BD85B5816085BD8091D6
:100D10006E00816080936E0010928100809181004E
:100D20008260809381008091810081608093810046
:100D3000809180008160809380008091B100846008
:100D40008093B1008091B00081608093B000809169
:100D50007A00846080937A0080917A008260809328
:100D60007A0080917A00816080937A0080917A0085
:100D7000806880937A001092C100E0915507F0914D
:100D8000560782E08083E0915107F091520710826C
:100D9000E0915307F09154078FEC808310925D0728
:100DA000E0915907F0915A0786E08083E091570758
:100DB000F0915807808180618083E0915707F0911E
:100DC0005807808188608083E0915707F091580729
:100DD000808180688083E0915707F0915807808177
:100DE0008F7D808361E083E00E94190261E086E0EC
:100DF0000E94190261E084E00E94190261E085E02E
:100E00000E94190260E08AE00E94190260E087E017
:100E10000E94190260E08BE00E94190260E088E005
:100E20000E94190260E08CE00E94190260E089E0F3
:100E30000E94190261E08DE00E94190261E08EE0DB
:100E40000E94190261E08FE00E94190261E080E1D6
:100E50000E94190261E081E10E941902C12CD12C8B
:100E600080E8E82E8FE3F82EC0E0D0E060E082E07A
:100E70000E94EB0160E086E00E94EB0181E291E0DC
:100E80000E94350364E971E180E090E00E946F0206
:100E900061E084E00E94EB0185E391E00E9435036C
:100EA00060ED77E080E090E00E946F0261E085E015
:100EB0000E94EB0184E591E00E94350364EC79E047
:100EC00080E090E00E946F0260E085E00E94EB010C
:100ED00084E691E00E94350360E084E00E94EB012B
:100EE00089E791E00E94350361E086E00E94EB0112
:100EF00081E991E00E94350361E082E00E94EB010C
:100F000068EE73E080E090E00E946F0283EA91E077
:100F10000E943503C0924107D0924207E0924307F6
:100F2000F092440720E030E041E954E46091410749
:100F30007091420780914307909144070E94530AA1
:100F400087FFFDC00E94A2020E94750387E00E94F5
:100F5000C2010E94430388E00E94C2010E94430331
:100F600089E00E94C2010E94430320E030E040E09B
:100F70005FE360913D0770913E0780913F0790913C
:100F800040070E94AB0B18160CF051C087E00E947E
:100F9000C201892BB1F461E08EE00E94EB0160E0B8
:100FA0008FE00E94EB0160E080E10E94EB0160E0D5
:100FB00081E10E94EB018AEB91E00E9435030E94DF
:100FC000610688E00E94C201892BB1F460E08EE0E6
:100FD0000E94EB0161E08FE00E94EB0160E080E1A4
:100FE0000E94EB0160E081E10E94EB018CE292E063
:100FF0000E9435030E94D50589E00E94C201892B19
:10100000B1F461E08EE00E94EB0161E08FE00E94AC
:10101000EB0160E080E10E94EB0160E081E10E9471
:10102000EB018EE992E00E9435030E9449058AE0B7
:101030000E94C2010E9443038BE00E94C2010E94F1
:1010400043038CE00E94C2010E94430320E030E091
:1010500040EC50E460913D0770913E0780913F075E
:10106000909140070E94AB0B18160CF051C08AE01B
:101070000E94C201892BB1F460E08EE00E94EB0176
:1010800060E08FE00E94EB0161E080E10E94EB01F3
:1010900060E081E10E94EB0180E193E00E94350372
:1010A0000E941B068BE00E94C201892BB1F461E013
:1010B0008EE00E94EB0160E08FE00E94EB0161E0B6
:1010C00080E10E94EB0160E081E10E94EB018FE78B
:1010D00093E00E9435030E948F058CE00E94C201BC
:1010E000892BB1F460E08EE00E94EB0161E08FE0BB
:1010F0000E94EB0161E080E10E94EB0160E081E190
:101100000E94EB018EEE93E00E9435030E940305DE
:1011100020E030E040E85FE36091410770914207D2
:1011200080914307909144070E94E709609341072B
:10113000709342078093430790934407F3CE8DE565
:1011400094E00E94350380E090E0A1E9B4E480934C
:10115000410790934207A0934307B093440720E0D0
:1011600030E040E85FE36091410770914207809171
:101170004307909144070E94AB0B87FDEBC00E9490
:10118000A2020E9475038AE00E94C2010E944303EA
:101190008BE00E94C2010E9443038CE00E94C201C6
:1011A0000E94430320E030E040EC50E460913D07B2
:1011B00070913E0780913F07909140070E94530A2B
:1011C00018160CF448C08AE00E94C201019799F4F5
:1011D00060E08EE00E94EB0161E08FE00E94EB0195
:1011E00060E080E10E94EB0161E081E10E94EB019F
:1011F0008EE694E053CF8BE00E94C201019799F4F0
:1012000061E08EE00E94EB0161E08FE00E94EB0163
:1012100060E080E10E94EB0161E081E10E94EB016E
:101220008DED94E056CF8CE00E94C201019799F4B5
:1012300060E08EE00E94EB0160E08FE00E94EB0135
:1012400061E080E10E94EB0161E081E10E94EB013D
:101250008CE495E059CF87E00E94C2010E944303CD
:1012600088E00E94C2010E94430389E00E94C201FB
:101270000E94430320E030E040E05FE360913D07DF
:1012800070913E0780913F07909140070E94530A5A
:1012900018160CF448C087E00E94C201019799F427
:1012A00061E08EE00E94EB0161E08FE00E94EB01C3
:1012B00061E080E10E94EB0160E081E10E94EB01CE
:1012C0008BEB95E07ACE88E00E94C201019799F4F9
:1012D00060E08EE00E94EB0160E08FE00E94EB0195
:1012E00060E080E10E94EB0161E081E10E94EB019E
:1012F0008DE296E07DCE89E00E94C201019799F4CB
:1013000061E08EE00E94EB0160E08FE00E94EB0163
:1013100060E080E10E94EB0161E081E10E94EB016D
:101320008FE996E080CE20E030E040E85FE3609116
:1013300041077091420780914307909144070E94B2
:10134000E6096093410770934207809343079093A7
:10135000440705CF81E197E00E943503209709F407
:1013600085CD0E94F600882309F480CD0E940000FC
:101370007DCDE5E4F7E01382128288EE93E0A0E0F1
:10138000B0E084839583A683B78384E091E0918362
:10139000808385EC90E09587848784EC90E0978744
:1013A000868780EC90E0918B808B81EC90E0938B32
:1013B000828B82EC90E0958B848B86EC90E0978B0F
:1013C000868B118E128E138E148E08955058BB2763
:1013D000AA270E94FE090C94710B0E94630B38F03F
:1013E0000E946A0B20F039F49F3F19F426F40C9404
:1013F000600B0EF4E095E7FB0C945A0BE92F0E946A
:10140000820B58F3BA17620773078407950720F019
:1014100079F4A6F50C94A40B0EF4E0950B2EBA2FDC
:10142000A02D0B01B90190010C01CA01A0011124EA
:10143000FF27591B99F0593F50F4503E68F11A1696
:10144000F040A22F232F342F4427585FF3CF469527
:1014500037952795A795F0405395C9F77EF41F1649
:10146000BA0B620B730B840BBAF09150A1F0FF0F13
:10147000BB1F661F771F881FC2F70EC0BA0F621FFF
:10148000731F841F48F4879577956795B795F795EF
:101490009E3F08F0B0CF9395880F08F09927EE0F84
:1014A0009795879508950E94360B08F481E008957A
:1014B0000E946C0A0C94710B0E946A0B58F00E94F7
:1014C000630B40F029F45F3F29F00C945A0B511143
:1014D0000C94A50B0C94600B0E94820B68F399236B
:1014E000B1F3552391F3951B550BBB27AA27621720
:1014F0007307840738F09F5F5F4F220F331F441F2D
:10150000AA1FA9F335D00E2E3AF0E0E832D0915060
:101510005040E695001CCAF72BD0FE2F29D0660F4D
:10152000771F881FBB1F261737074807AB07B0E890
:1015300009F0BB0B802DBF01FF2793585F4F3AF096
:101540009E3F510578F00C945A0B0C94A50B5F3F0D
:10155000E4F3983ED4F3869577956795B795F7951C
:101560009F5FC9F7880F911D9695879597F9089504
:10157000E1E0660F771F881FBB1F621773078407A0
:10158000BA0720F0621B730B840BBA0BEE1F88F7AF
:10159000E09508950E948A0B88F09F5798F0B92F24
:1015A0009927B751B0F0E1F0660F771F881F991F98
:1015B0001AF0BA95C9F714C0B13091F00E94A40B8B
:1015C000B1E008950C94A40B672F782F8827B85F9B
:1015D00039F0B93FCCF3869577956795B395D9F7F0
:1015E0003EF490958095709561957F4F8F4F9F4FFA
:1015F0000895E89409C097FB3EF490958095709506
:1016000061957F4F8F4F9F4F9923A9F0F92F96E94E
:10161000BB279395F695879577956795B795F111C3
:10162000F8CFFAF4BB0F11F460FF1BC06F5F7F4F60
:101630008F4F9F4F16C0882311F096E911C0772372
:1016400021F09EE8872F762F05C0662371F096E87B
:10165000862F70E060E02AF09A95660F771F881F4A
:10166000DAF7880F9695879597F90895990F0008EE
:10167000550FAA0BE0E8FEEF16161706E807F90764
:10168000C0F012161306E407F50798F0621B730BFF
:10169000840B950B39F40A2661F0232B242B252B80
:1016A00021F408950A2609F4A140A6958FEF811D23
:1016B000811D089597F99F6780E870E060E00895C4
:1016C0009FEF80EC089500240A941616170618065A
:1016D0000906089500240A94121613061406050636
:1016E0000895092E0394000C11F4882352F0BB0FC7
:1016F00040F4BF2B11F460FF04C06F5F7F4F8F4F2A
:101700009F4F089557FD9058440F551F59F05F3F64
:1017100071F04795880F97FB991F61F09F3F79F013
:1017200087950895121613061406551FF2CF469595
:10173000F1DF08C0161617061806991FF1CF869517
:101740007105610508940895E894BB2766277727FB
:10175000CB0197F908950E94360B08F48FEF089596
:101760000E94C30B0C94710B0E94630B38F00E9413
:101770006A0B20F0952311F00C945A0B0C94600B1B
:1017800011240C94A50B0E94820B70F3959FC1F35A
:10179000950F50E0551F629FF001729FBB27F00D1F
:1017A000B11D639FAA27F00DB11DAA1F649F662774
:1017B000B00DA11D661F829F2227B00DA11D621FC3
:1017C000739FB00DA11D621F839FA00D611D221F7D
:1017D000749F3327A00D611D231F849F600D211D61
:1017E000822F762F6A2F11249F5750409AF0F1F0E4
:1017F00088234AF0EE0FFF1FBB1F661F771F881F4D
:1018000091505040A9F79E3F510580F00C945A0B1F
:101810000C94A50B5F3FE4F3983ED4F3869577953F
:101820006795B795F795E7959F5FC1F7FE2B880FF2
:10183000911D9695879597F908950E94360B880B10
:10184000990B0895A1E21A2EAA1BBB1BFD010DC026
:10185000AA1FBB1FEE1FFF1FA217B307E407F50760
:1018600020F0A21BB30BE40BF50B661F771F881F3C
:10187000991F1A9469F760957095809590959B01D2
:10188000AC01BD01CF010895EE0FFF1F0590F4914B
:08189000E02D0994F894FFCF4C
:10189800000000002C018C00B9007901EA00C800A2
:1018A800DC000D0A006E616E00696E66006F766678
:1018B8000041504552545552412044452050554509
:1018C8005254415300536520656E6369656E6465C3
:1018D80020696E64696361646F72204C756D696E0E
:1018E8006F736F005375656E61206C612053697268
:1018F800656E610044656A6120646520736F6E617E
:101908006C20536972656E61005365206170616770
:1019180061206C757A20696E64696361646F7261B5
:10192800004349455252452044452050554552549C
:101938004153005452454E2073616C652064652004
:10194800455354414349C3934E004552524F525F49
:101958003031313A206C61207661726961626C6560
:101968002058315F56545F303520646562696120C4
:101978006172726F6A617220756E20554E4F2C200D
:101988007065726F207265636962696F20756E2079
:101998004345524F0A4552524F5220434F4E5452DC
:1019A8004F4C2044452056454C434944414420521D
:1019B800454C4520302E354B4D2F48004552524F4F
:1019C800525F3032313A206C61207661726961620F
:1019D8006C652058375F56545F30352064656269FE
:1019E80061206172726F6A617220756E20554E4F68
:1019F8002C207065726F207265636962696F20754B
:101A08006E204345524F0A4552524F5220434F4E83
:101A180054524F4C2044452056454C434944414478
:101A28002052454C4520302E354B4D2F480045520D
:101A3800524F525F3033313A206C612076617269BF
:101A480061626C652058365F56545F303520646596
:101A5800626961206172726F6A617220756E2055C9
:101A68004E4F2C207065726F207265636962696FD2
:101A780020756E204345524F0A4552524F5220431B
:101A88004F4E54524F4C2044452056454C434944F0
:101A980041442052454C4520302E354B4D2F4800AF
:101AA8004552524F525F3031323A206C6120766194
:101AB800726961626C652058315F56545F362064E4
:101AC80065626961206172726F6A617220756E2049
:101AD800554E4F2C207065726F207265636962697C
:101AE8006F20756E204345524F0A4552524F52207F
:101AF800434F4E54524F4C2044452056454C434981
:101B08004441442052454C4520364B4D2F48004512
:101B180052524F525F3032323A206C6120766172F5
:101B28006961626C652058375F56545F362064657A
:101B3800626961206172726F6A617220756E2055E8
:101B48004E4F2C207065726F207265636962696FF1
:101B580020756E204345524F0A4552524F5220433A
:101B68004F4E54524F4C2044452056454C4349440F
:101B780041442052454C4520364B4D2F4800455294
:101B8800524F525F3033323A206C6120766172696D
:101B980061626C652058365F56545F362064656212
:101BA8006961206172726F6A617220756E20554E8C
:101BB8004F2C207065726F207265636962696F20AF
:101BC800756E204345524F0A4552524F5220434F9B
:101BD8004E54524F4C2044452056454C43494441AD
:101BE800442052454C4520364B4D2F480056454C15
:101BF8004F4349444144204D4158494D41004552C5
:101C0800524F525F3031343A206C612076617269EC
:101C180061626C652058315F56545F362064656296
:101C28006961206172726F6A617220756E20434526
:101C3800524F2C207065726F207265636962696FFC
:101C480020756E20554E4F0A4552524F5220434F31
:101C58004E54524F4C2044452056454C434944412C
:101C6800442052454C4520364B4D2F480045525292
:101C78004F525F3032343A206C612076617269616C
:101C8800626C652058375F56545F36206465626918
:101C980061206172726F6A617220756E20434552CD
:101CA8004F2C207065726F207265636962696F20BE
:101CB800756E20554E4F0A4552524F5220434F4E93
:101CC80054524F4C2044452056454C4349444144C6
:101CD8002052454C4520364B4D2F48004552524F17
:101CE800525F3033343A206C6120766172696162E8
:101CF8006C652058365F56545F36206465626961AA
:101D0800206172726F6A617220756E204345524F6E
:101D18002C207065726F207265636962696F207527
:101D28006E20554E4F0A4552524F5220434F4E5443
:101D3800524F4C2044452056454C43494441442089
:101D480052454C4520364B4D2F48004552524F5274
:101D58005F3031333A206C61207661726961626C60
:101D6800652058315F56545F30352064656269617B
:101D7800206172726F6A617220756E204345524FFE
:101D88002C207065726F207265636962696F2075B7
:101D98006E20554E4F0A4552524F5220434F4E54D3
:101DA800524F4C2044452056454C43494441442019
:101DB80052454C4520302E354B4D2F480045525248
:101DC8004F525F3032333A206C612076617269611C
:101DD800626C652058375F56545F30352064656201
:101DE8006961206172726F6A617220756E20434565
:101DF800524F2C207065726F207265636962696F3B
:101E080020756E20554E4F0A4552524F5220434F6F
:101E18004E54524F4C2044452056454C434944416A
:101E2800442052454C4520302E354B4D2F48004517
:101E380052524F525F3033333A206C6120766172D0
:101E48006961626C652058365F56545F303520648E
:101E580065626961206172726F6A617220756E20B5
:101E68004345524F2C207065726F2072656369621A
:101E7800696F20756E20554E4F0A4552524F5220B9
:101E8800434F4E54524F4C2044452056454C4349ED
:101E98004441442052454C4520302E354B4D2F4867
:101EA800005452454E206861206C6C656761646F10
:0C1EB80020612044455354494E4F000067
:00000001FF
