:1000000002308A00D22A00000A108A100A118207E0
:1000100028340C34013406340A108A100A1182077D
:100020000C3400340A108A100A11820745347334E4
:1000300070346534723461346E3464346F34203417
:100040004534523452344F34523400340A108A103A
:100050000A11820752346534673469347334743456
:100060007234613464346F347234203464346534EF
:1000700020344534763465346E3474346F347334DC
:1000800000340A108A100A1182074534723472341F
:100090006F347234203465346E343A3400340A10CC
:1000A0008A100A1182074534523452344F34523484
:1000B0005F343034313431343A3420346C34613488
:1000C00020347634613472346934613462346C348F
:1000D00065342034583431345F34563454345F340A
:1000E0003034353400340A108A100A11820745343E
:1000F000523452344F3452345F3430343234313429
:100100003A3420346C3461342034763461347234BF
:100110006934613462346C34653420345834373493
:100120005F34563454345F343034353400340A107C
:100130008A100A1182074534523452344F345234F3
:100140005F343034333431343A3420346C346134F5
:1001500020347634613472346934613462346C34FE
:1001600065342034583436345F34563454345F3474
:100170003034353400340A108A100A1182074534AD
:10018000523452344F3452345F3430343134323498
:100190003A3420346C34613420347634613472342F
:1001A0006934613462346C34653420345834313409
:1001B0005F34563454345F34363400340A108A10B5
:1001C0000A11E53E03188A0A82004534523452343B
:1001D0004F3452345F343034323432343A34203491
:1001E0006C3461342034763461347234693461346F
:1001F00062346C3465342034583437345F345634C8
:1002000054345F34363400340A148A100A118207D9
:100210004534523452344F3452345F3430343334F2
:1002200032343A3420346C346134203476346134DE
:1002300072346934613462346C3465342034583437
:1002400036345F34563454345F34363400340A1450
:100250008A100A1182074534523452344F345234D2
:100260005F343034313433343A3420346C346134D4
:1002700020347634613472346934613462346C34DD
:1002800065342034583437345F34563454345F3452
:100290003034353400340A148A100A118207453488
:1002A000523452344F3452345F3430343234333475
:1002B0003A3420346C34613420347634613472340E
:1002C0006934613462346C346534203458343734E2
:1002D0005F34563454345F343034353400340A14C7
:1002E0008A100A1182074534523452344F34523442
:1002F0005F343034333433343A3420346C34613442
:1003000020347634613472346934613462346C344C
:1003100065342034583436345F34563454345F34C2
:100320003034353400340A148A100A1182074534F7
:10033000523452344F3452345F34303431343434E4
:100340003A3420346C34613420347634613472347D
:100350006934613462346C34653420345834373451
:100360005F34563454345F34363400340A148A10FF
:100370000A1182074534523452344F3452345F34B8
:100380003034323434343A3420346C3461342034F0
:100390007634613472346934613462346C34653477
:1003A0002034583437345F34563454345F34363460
:1003B00000340A148A100A11820745345234523428
:1003C0004F3452345F343034333434343A3420349C
:1003D0006C3461342034763461347234693461347D
:1003E00062346C3465342034583436345F345634D7
:1003F00054345F34363400342330840083130008CF
:100400000319102A0130F800F701F70B052AF80B41
:10041000042A4A30F700F70B0B2A0E2A800B022A17
:1004200008002A0EF039F7000F3006057704860021
:10043000000006141B2A061008000608F700060E26
:100440000F39F80008008316061086100611831273
:1004500086100F3083160605F038860083120615C5
:100460000000061400001D227808AA0006100000F3
:10047000061400001D227808A90006100F3083160C
:100480000605860083122A0EF700F030F70577087C
:100490002904F8007808A900A91B292A271C86101E
:1004A000271886140000061100000610280EA90067
:1004B0000F30A9052908AA00112228080F39A90020
:1004C000AA00112208000F308316060586000610C8
:1004D0008610061183128610061106100F30A30035
:1004E000FC210130A1002108033C031C7F2A0330BA
:1004F000AA0011220530A300FC21A10A732A0230B0
:10050000AA0011220530A300FC21A1012108033C0F
:10051000031C932A21080420A200A7012208A80096
:100520002322A10A862AE82A240B972A9A2A4030F5
:10053000A5009B2AA50101302302A50725088038C4
:10054000A600A7012608A800232208002208073ACF
:100550000319B42A0B3A0319B92A063A0319C12A16
:10056000023A0319C72ACC2A0130A300A40094221E
:10057000D12AA7010130A80023220230A300FC21C8
:10058000D12A0130A3000230A4009422D12AA7016D
:100590001030A8002322D12A0130A7002208A80089
:1005A0002322080003081F39830007309F008313AC
:1005B00083160512831205160230A100FA30A3003B
:1005C000FC21A10BDE2A8316051283120512632A71
:1005D000A10121080C2000380319F22AA10AA20067
:1005E000A622E92A0130A300A4009422A101210837
:1005F0001220A10AF700A200A6220F302102031D3B
:10060000F72A0130A3000230A4009422A10121089E
:100610002620A10AF700A200A62216302102031DFF
:10062000072B831605148312051C502B8316851483
:1006300083128518502B8316051583120519502B2C
:100640008316851583128519502BA10121080C20D2
:10065000003803192F2BA10AA200A622262B013055
:10066000A300A4009422A10121084120A10AF700BF
:10067000A200A62209302102031D342B0130A30061
:100680000230A4009422A10121084F20A10AF70002
:10069000A200A6221F302102031D442B052E042E8A
:1006A00083160514831205188F2B83168514831265
:1006B000851C8F2B83160515831205198F2B831626
:1006C0008515831285198F2BA10121080C20003874
:1006D00003196E2BA10AA200A622652B0130A300EC
:1006E000A4009422A10121084120A10AF700A20040
:1006F000A62209302102031D732B0130A300023012
:10070000A4009422A10121087320A10AF700A200ED
:10071000A6221F302102031D832B052E042E8316D3
:1007200005148312051CCE2B831685148312851C99
:10073000CE2B8316051583120519CE2B831685152E
:1007400083128519CE2BA10121080C200038031932
:10075000AD2BA10AA200A622A42B0130A300A40065
:100760009422A10121084120A10AF700A200A6229B
:1007700009302102031DB22B0130A3000230A40076
:100780009422A10121089720A10AF700A200A62225
:100790001F302102031DC22B052E042E83160514C3
:1007A000831205180D2C83168514831285180D2CC1
:1007B000831605158312051D0D2C831685158312CE
:1007C00085190D2CA10121080C2000380319EC2BF0
:1007D000A10AA200A622E32B0130A300A4009422C8
:1007E000A10121084120A10AF700A200A622093098
:1007F0002102031DF12B0130A3000230A40094223A
:10080000A1012108BB20A10AF700A200A6221E30E8
:100810002102031D012C052E042E831605148312BC
:10082000051C4C2C83168514831285184C2C8316BA
:1008300005158312051D4C2C831685158312851909
:100840004C2CA10121080C20003803192B2CA10AE3
:10085000A200A622222C0130A300A4009422A10110
:1008600021084120A10AF700A200A6220930210296
:10087000031D302C0130A3000230A4009422A101FA
:100880002108DE20A10AF700A200A6221E302102C4
:10089000031D402C052E042E831605148312051803
:1008A0008B2C831685148312851C8B2C83160515BF
:1008B0008312051D8B2C83168515831285198B2CAD
:1008C000A10121080C20003803196A2CA10AA200FA
:1008D000A622612C0130A300A4009422A1012108CA
:1008E0004120A10AF700A200A62209302102031D1F
:1008F0006F2C0130A3000230A4009422A101210832
:100900000421A10AF700A200A6221E302102031D25
:100910007F2C052E042E831605148312051CCA2C69
:10092000831685148312851CCA2C83160515831221
:10093000051DCA2C8316851583128519CA2CA101A1
:1009400021080C2000380319A92CA10AA200A62214
:10095000A02C0130A300A4009422A1012108412071
:10096000A10AF700A200A62209302102031DAE2C25
:100970000130A3000230A4009422A1012108272104
:10098000A10AF700A200A6221F302102031DBE2CDF
:10099000052E042E8316051483120518092D8316BF
:1009A000851483128518092D8316051583120519E0
:1009B000092D831685158312851D092DA101210896
:1009C0000C2000380319E82CA10AA200A622DF2C73
:1009D0000130A300A4009422A10121084120A10A12
:1009E000F700A200A62209302102031DED2C0130E0
:1009F000A3000230A4009422A10121084B21A10AE6
:100A0000F700A200A6221F302102031DFD2C052E97
:100A1000042E831605148312051C482D8316851495
:100A200083128518482D8316051583120519482D44
:100A3000831685158312851D482DA10121080C20E0
:100A400000380319272DA10AA200A6221E2D01306D
:100A5000A300A4009422A10121084120A10AF700CB
:100A6000A200A62209302102031D2C2D0130A30073
:100A70000230A4009422A10121086F21A10AF700ED
:100A8000A200A6221F302102031D3C2D052E042E9C
:100A90008316051483120518872D83168514831277
:100AA000851C872D8316051583120519872D83163E
:100AB00085158312851D872DA10121080C20003882
:100AC0000319662DA10AA200A6225D2D0130A30004
:100AD000A4009422A10121084120A10AF700A2004C
:100AE000A62209302102031D6B2D0130A300023024
:100AF000A4009422A10121089321A10AF700A200D9
:100B0000A6221E302102031D7B2D052E042E8316E6
:100B100005148312051CC62D831685148312851CAB
:100B2000C62D8316051583120519C62D8316851546
:100B30008312851DC62DA10121080C200038031940
:100B4000A52DA10AA200A6229C2D0130A300A4007D
:100B50009422A10121084120A10AF700A200A622A7
:100B600009302102031DAA2D0130A3000230A40088
:100B70009422A1012108B621A10AF700A200A62211
:100B80001E302102031DBA2D052E042E83160514D6
:100B900083120518042E8316851483128518042EDB
:100BA000831605158312051D042E831685158312E1
:100BB000851D042EA10121080C2000380319E42D05
:100BC000A10AA200A622DB2D0130A300A4009422DA
:100BD000A10121084120A10AF700A200A6220930A4
:100BE0002102031DE92D0130A3000230A40094224C
:100BF000A1012108D921A10AF700A200A6221E30D6
:0C0C00002102031DF92D052EF22A6300CD
:02400E00113F60
:00000001FF
;PIC16F628A
;CRC=EC14  CREATED="17-abr.-21 12:55"
