:1000000002308A00292A00000A108A100A11820789
:1000100028340C34013406340A108A100A1182077D
:100020000C3400340A108A100A11820745347334E4
:1000300070346534723461346E3464346F34203417
:100040004534523452344F34523400340A108A103A
:100050000A11820752346534673469347334743456
:100060007234613464346F347234203464346534EF
:1000700020344534763465346E3474346F347334DC
:1000800000340A108A100A1182074534723472341F
:100090006F347234203465346E343A3400340A10CC
:1000A0008A100A1182074534523452344F34523484
:1000B0005F343034313431343A3420346C34613488
:1000C00020347634613472346934613462346C348F
:1000D00065342034583431345F34563454345F340A
:1000E0003034353400340A108A100A11820745343E
:1000F000523452344F3452345F3430343234313429
:100100003A3420346C3461342034763461347234BF
:100110006934613462346C34653420345834373493
:100120005F34563454345F343034353400340A107C
:100130008A100A1182074534723472346F34723473
:10014000203465346E343A340A34453452345234EF
:100150004F3452345F343034333431343A34203411
:100160006C346134203476346134723469346134EF
:1001700062346C3465342034583436345F34563449
:1001800054345F343034353400340A108A100A1184
:1001900082070C344534723472346F347234203434
:1001A00065346E343A340A344534523452344F3460
:1001B00052345F343034313431343A3420346C3496
:1001C0006134203476346134723469346134623499
:1001D0006C3465342034583431345F3456345434FC
:1001E0005F34363400340A108A100A11FA3E0318BC
:1001F0008A0A82000C344534723472346F3472349B
:10020000203465346E343A340A344534523452342E
:100210004F3452345F343034323431343A34203451
:100220006C3461342034763461347234693461342E
:1002300062346C3465342034583437345F34563487
:1002400054345F34363400340A148A100A11820799
:100250000C344534723472346F3472342034653463
:100260006E343A340A340C344534523452344F34F8
:1002700052345F343034333431343A3420346C34D3
:1002800061342034763461347234693461346234D8
:100290006C3465342034583436345F345634543436
:1002A0005F3436340034233084008313000803198C
:1002B00067290130F800F701F70B5C29F80B5B297F
:1002C0004A30F700F70B62296529800B592908008D
:1002D0002A0EF039F7000F3006057704860000007B
:1002E00006147229061008000608F700060E0F39DA
:1002F000F800080083160610861006118312861077
:100300000F3083160605F0388600831206150000AC
:100310000614000074217808AA00061000000614D4
:10032000000074217808A90006100F308316060516
:10033000860083122A0EF700F030F70577082904AB
:10034000F8007808A900A91B8029271C8610271807
:1003500086140000061100000610280EA9000F30B8
:10036000A9052908AA00682128080F39A900AA00B0
:10037000682108000F3083160605860006108610D7
:10038000061183128610061106100F30A3005321A8
:100390000130A1002108033C031CD6290330AA0028
:1003A00068210530A3005321A10ACA290230AA00FE
:1003B00068210530A3005321A1012108033C031C3F
:1003C000EA2921080420A200A7012208A8007A2116
:1003D000A10ADD29302A240BEE29F1294030A5009D
:1003E000F229A50101302302A50725088038A600BF
:1003F000A7012608A8007A2108002208073A031955
:100400000B2A0B3A0319102A063A0319182A023A42
:1004100003191E2A232A0130A300A400EB21282A55
:10042000A7010130A8007A210230A3005321282A15
:100430000130A3000230A400EB21282AA7011030CC
:10044000A8007A21282A0130A7002208A8007A21D2
:10045000080003081F39830007309F008313BA295F
:10046000A10121080C20003803193A2AA10AA20090
:10047000FD21312A0130A300A400EB21A1012108B4
:100480001220A10AF700A200FD210F302102031D56
:100490003F2A0130A3000230A400EB21A101210872
:1004A0002620A10AF700A200FD2116302102031D1B
:1004B0004F2A831605148312051C892AA1012108DD
:1004C0000C2000380319682AA10AA200FD215F2A26
:1004D0000130A300A400EB21A10121084120A10AC1
:1004E000F700A200FD2109302102031D6D2A013011
:1004F000A3000230A400EB21A10121084F20A10A92
:10050000F700A200FD211F302102031D7D2A392B97
:10051000382B831685148312851CB92AA101210862
:100520000C2000380319982AA10AA200FD218F2A65
:100530000130A300A400EB21A10121084120A10A60
:10054000F700A200FD2109302102031D9D2A013080
:10055000A3000230A400EB21A10121087320A10A0D
:10056000F700A200FD211F302102031DAD2A392B07
:10057000382B831605158312051DD92AA1012108E0
:100580000C2000380319C82AA10AA200FD21BF2AA5
:100590000130A300A400EB21A10121089720A10AAA
:1005A000F700A200FD2129302102031DCD2A392B9D
:1005B000382B831685158312851DF92AA101210880
:1005C0000C2000380319E82AA10AA200FD21DF2A25
:1005D0000130A300A400EB21A1012108C520A10A3C
:1005E000F700A200FD2129302102031DED2A392B3D
:1005F000382B831605168312051E192BA10121081D
:100600000C2000380319082BA10AA200FD21FF2AA3
:100610000130A300A400EB21A1012108F320A10ACD
:10062000F700A200FD2129302102031D0D2B392BDB
:10063000382B831685168312851E382BA1012108BD
:100640000C2000380319282BA10AA200FD211F2B22
:100650000130A300A400EB21A10121082421A10A5B
:10066000F700A200FD212A302102031D2D2B392B7A
:040670003A2A6300BF
:02400E00613F10
:00000001FF
;PIC16F628A
;CRC=34AC  CREATED="14-abr.-21 14:15"
