:1000000002308A00632A00000A108A100A1182074F
:1000100028340C34013406340A108A100A1182077D
:100020000C3400340A108A100A11820742346134F9
:100030006E3463346F342034643465342034503487
:1000400072347534653462346134733400340A10A8
:100050008A100A1182074534523452344F345234D4
:1000600021342134213400340A108A100A11820705
:100070004534523452344F3452345F343034313496
:1000800031343A342034583431345F3456345434B3
:100090005F343034353400340A108A100A11820774
:1000A0004534523452344F3452345F343034323465
:1000B00031343A342034583437345F34563454347D
:1000C0005F343034353400340A108A100A11820744
:1000D0004534523452344F3452345F343034333434
:1000E00031343A342034583436345F34563454344E
:1000F0005F343034353400340A108A100A11820714
:100100004534523452344F3452345F343034313405
:1001100032343A342034583431345F345634543421
:100120005F34363400340A108A100A1182074534CD
:10013000523452344F3452345F34303432343234E7
:100140003A342034583437345F34563454345F34BE
:10015000363400340A108A100A11820745345234AA
:1001600052344F3452345F343034333432343A34CE
:100170002034583436345F34563454345F34363493
:1001800000340A108A100A1182074534523452345E
:100190004F3452345F343034313433343A342034D1
:1001A000583431345F34563454345F343034353459
:1001B00000340A108A100A1182074534523452342E
:1001C0004F3452345F343034323433343A342034A0
:1001D000583437345F34563454345F343034353423
:1001E00000340A108A100A11F83E03188A0A8200A5
:1001F0004534523452344F3452345F343034333413
:1002000033343A342034583436345F34563454342A
:100210005F343034353400340A148A100A118207EE
:100220004534523452344F3452345F3430343134E4
:1002300034343A342034583431345F3456345434FE
:100240005F34363400340A148A100A1182074534A8
:10025000523452344F3452345F34303432343434C4
:100260003A342034583437345F34563454345F349D
:10027000363400340A148A100A1182074534523485
:1002800052344F3452345F343034333434343A34AB
:100290002034583436345F34563454345F34363472
:1002A00000340A148A100A11820745345234523439
:1002B0004F3452345F343034303431343A342034B3
:1002C0005034723465347034613472346134633460
:1002D00069346F346E3420345834313400340A14A5
:1002E0008A100A1182074534523452344F34523442
:1002F0005F343034303432343A3420345034723451
:1003000065347034613472346134633469346F3409
:100310006E34203458343634003423308400831350
:1003200000080319A1290130F800F701F70B9629FD
:10033000F80B95294A30F700F70B9C299F29800B71
:10034000932908002A0EF039F7000F3006057704CC
:10035000860000000614AC29061008000608F70005
:10036000060E0F39F80008008316061086100611D5
:10037000831286100F3083160605F038860083122C
:100380000615000006140000AE217808AA00061029
:10039000000006140000AE217808A90006100F30F6
:1003A00083160605860083122A0EF700F030F70543
:1003B00077082904F8007808A900A91BBA29271C86
:1003C0008610271886140000061100000610280E5B
:1003D000A9000F30A9052908AA00A22128080F3971
:1003E000A900AA00A22108000F3083160605860086
:1003F00006108610061183128610061106100F30A3
:10040000A3008D210130A1002108033C031C102A08
:100410000330AA00A2210530A3008D21A10A042ADD
:100420000230AA00A2210530A3008D21A1012108DC
:10043000033C031C242A21080420A200A70122084F
:10044000A800B421A10A172A792A240B282A2B2ACA
:100450004030A5002C2AA50101302302A50725085C
:100460008038A600A7012608A800B42108002208A9
:10047000073A0319452A0B3A03194A2A063A03197F
:10048000522A023A0319582A5D2A0130A300A40017
:100490002522622AA7010130A800B4210230A3005E
:1004A0008D21622A0130A3000230A4002522622A95
:1004B000A7011030A800B421622A0130A700220849
:1004C000A800B421080003081F39830007309F00EB
:1004D000831383160512831205160230A100FA3029
:1004E000A3008D21A10B6F2A83160512831205121A
:1004F000F429A10121080C2000380319832AA10A3C
:10050000A20037227A2A0130A300A4002522A101EB
:1005100021081220A10AF700A20037221030210280
:10052000031D882A0130A3000230A4002522453093
:10053000A20037225630A20037225230A2003722C2
:10054000831605148312051CDF2A83168514831273
:100550008518DF2A8316051583120519DF2A8316ED
:10056000851583128519DF2AA10121080C20003886
:100570000319BE2AA10AA2003722B52A0130A3001E
:10058000A4002522A10121082720A10AF700A2002A
:10059000372208302102031DC32A0130A300023094
:1005A000A4002522A10121083420A10AF700A200FD
:1005B000372213302102031DD32A122E112E831647
:1005C0000514831205181E2B831685148312851CAF
:1005D0001E2B83160515831205191E2B83168515F0
:1005E000831285191E2BA10121080C200038031944
:1005F000FD2AA10AA2003722F42A0130A300A40098
:100600002522A10121082720A10AF700A2003722F4
:1006100008302102031D022B0130A3000230A40088
:100620002522A10121084C20A10AF700A2003722AF
:1006300013302102031D122B122E112E83160514C6
:100640008312051C5D2B831685148312851C5D2B7C
:1006500083160515831205195D2B831685158312E4
:1006600085195D2BA10121080C20003803193C2BB2
:10067000A10AA2003722332B0130A300A4002522B7
:10068000A10121082720A10AF700A2003722083083
:100690002102031D412B0130A3000230A4002522BA
:1006A000A10121086420A10AF700A200372213301B
:1006B0002102031D512B122E112E831605148312B5
:1006C00005189C2B83168514831285189C2B831682
:1006D00005158312051D9C2B83168515831285191C
:1006E0009C2BA10121080C20003803197B2BA10AA7
:1006F000A2003722722B0130A300A4002522A10101
:1007000021082720A10AF700A20037220830210281
:10071000031D802B0130A3000230A4002522A1017B
:1007200021087C20A10AF700A20037221230210202
:10073000031D902B122E112E831605148312051CF7
:10074000DB2B8316851483128518DB2B8316051586
:100750008312051DDB2B8316851583128519DB2B70
:10076000A10121080C2000380319BA2BA10AA2000C
:100770003722B12B0130A300A4002522A1012108BA
:100780002720A10AF700A200372208302102031D0A
:10079000BF2B0130A3000230A4002522A1012108B3
:1007A0009320A10AF700A200372212302102031D74
:1007B000CF2B122E112E83160514831205181A2C16
:1007C000831685148312851C1A2C83160515831233
:1007D000051D1A2C83168515831285191A2CA10163
:1007E00021080C2000380319F92BA10AA200372296
:1007F000F02B0130A300A4002522A101210827200D
:10080000A10AF700A200372208302102031DFE2BA7
:100810000130A3000230A4002522A1012108AA2052
:10082000A10AF700A200372212302102031D0E2C6C
:10083000122E112E831605148312051C592C8316B3
:1008400085148312851C592C831605158312051DEA
:10085000592C8316851583128519592CA10121085D
:100860000C2000380319382CA10AA20037222F2CA3
:100870000130A300A4002522A10121082720A10AFC
:10088000F700A200372208302102031D3D2C013061
:10089000A3000230A4002522A1012108C120A10A41
:1008A000F700A200372213302102031D4D2C122E17
:1008B000112E8316051483120518982C831685149F
:1008C00083128518982C8316051583120519982C08
:1008D000831685158312851D982CA10121080C20F3
:1008E00000380319772CA10AA20037226E2C0130A0
:1008F000A300A4002522A10121082720A10AF700B6
:10090000A200372208302102031D7C2C0130A300F5
:100910000230A4002522A1012108D920A10AF70054
:10092000A200372213302102031D8C2C122E112E0F
:10093000831605148312051CD72C83168514831285
:100940008518D72C8316051583120519D72C831605
:1009500085158312851DD72CA10121080C20003894
:100960000319B62CA10AA2003722AD2C0130A30036
:10097000A4002522A10121082720A10AF700A20036
:10098000372208302102031DBB2C0130A3000230A6
:10099000A4002522A1012108F120A10AF700A2004C
:1009A000372213302102031DCB2C122E112E831659
:1009B000051483120518162D831685148312851CC1
:1009C000162D8316051583120519162D8316851508
:1009D0008312851D162DA10121080C200038031952
:1009E000F52CA10AA2003722EC2C0130A300A400B0
:1009F0002522A10121082720A10AF700A200372201
:100A000008302102031DFA2C0130A3000230A4009B
:100A10002522A10121080C21A10AF700A2003722FA
:100A200012302102031D0A2D122E112E83160514D9
:100A30008312051C552D831685148312851C552D94
:100A40008316051583120519552D831685158312F6
:100A5000851D552DA10121080C2000380319342DC6
:100A6000A10AA20037222B2D0130A300A4002522C9
:100A7000A10121082720A10AF700A200372208308F
:100A80002102031D392D0130A3000230A4002522CC
:100A9000A10121082321A10AF700A2003722123068
:100AA0002102031D492D122E112E831605148312C7
:100AB0000518942D8316851483128518942D83169A
:100AC00005158312051D942D831685158312851D2A
:100AD000942DA10121080C2000380319732DA10ABF
:100AE000A20037226A2D0130A300A4002522A10113
:100AF00021082720A10AF700A2003722083021028E
:100B0000031D782D0130A3000230A4002522A1018D
:100B100021083A21A10AF700A2003722123021024F
:100B2000031D882D122E112E831605148312051C09
:100B3000D32D8316851483128518D32D831605159E
:100B40008312051DD32D831685158312851DD32D84
:100B5000A10121080C2000380319B22DA10AA2001E
:100B60003722A92D0130A300A4002522A1012108CC
:100B70002720A10AF700A200372208302102031D16
:100B8000B72D0130A3000230A4002522A1012108C5
:100B90005121A10AF700A200372219302102031DBA
:100BA000C72D122E112E8316051483120518112E2F
:100BB000831685148312851C112E83160515831246
:100BC000051D112E831685158312851D112EA10179
:100BD00021080C2000380319F12DA10AA2003722A8
:100BE000E82D0130A300A4002522A101210827201F
:100BF000A10AF700A200372208302102031DF62DBA
:100C00000130A3000230A4002522A10121086F2198
:100C1000A10AF700A200372219302102031D062E77
:060C2000122E832A63007E
:02400E00113F60
:00000001FF
;PIC16F628A
;CRC=ED0E  CREATED="13-may.-21 09:09"
