:1000000003308A00422B00000A108A100A1182076E
:1000100028340C34013406340A108A100A1182077D
:100020004534733470346534723461346E346434FE
:100030006F3420344534523452344F345234003407
:100040000A108A100A118207523465346734693401
:10005000733474347234613464346F3472342034E1
:100060006434653420344534763465346E34743405
:100070006F34733400340A108A100A1182070C346A
:1000800000340A108A100A1182074534723472341F
:100090006F347234203465346E343A3400340A10CC
:1000A0008A100A1182074534523452344F34523484
:1000B0005F343034313431343A3420346C34613488
:1000C00020347634613472346934613462346C348F
:1000D00065342034583431345F34563454345F340A
:1000E0003034353400340A108A100A11820745343E
:1000F000523452344F3452345F3430343234313429
:100100003A3420346C3461342034763461347234BF
:100110006934613462346C34653420345834373493
:100120005F34563454345F343034353400340A107C
:100130008A100A1182074534523452344F345234F3
:100140005F343034333431343A3420346C346134F5
:1001500020347634613472346934613462346C34FE
:1001600065342034583436345F34563454345F3474
:100170003034353400340A108A100A1182074534AD
:10018000523452344F3452345F3430343134323498
:100190003A3420346C34613420347634613472342F
:1001A0006934613462346C34653420345834313409
:1001B0005F34563454345F34363400340A108A10B5
:1001C0000A11E53E03188A0A82004534523452343B
:1001D0004F3452345F343034323432343A34203491
:1001E0006C3461342034763461347234693461346F
:1001F00062346C3465342034583437345F345634C8
:1002000054345F34363400340A148A100A118207D9
:100210004534523452344F3452345F3430343334F2
:1002200032343A3420346C346134203476346134DE
:1002300072346934613462346C3465342034583437
:1002400036345F34563454345F34363400340A1450
:100250008A100A1182074534523452344F345234D2
:100260005F343034313433343A3420346C346134D4
:1002700020347634613472346934613462346C34DD
:1002800065342034583437345F34563454345F3452
:100290003034353400340A148A100A118207453488
:1002A000523452344F3452345F3430343234333475
:1002B0003A3420346C34613420347634613472340E
:1002C0006934613462346C346534203458343734E2
:1002D0005F34563454345F343034353400340A14C7
:1002E0008A100A1182074534523452344F34523442
:1002F0005F343034333433343A3420346C34613442
:1003000020347634613472346934613462346C344C
:1003100065342034583436345F34563454345F34C2
:100320003034353400340A148A100A1182074534F7
:10033000523452344F3452345F34303431343434E4
:100340003A3420346C34613420347634613472347D
:100350006934613462346C34653420345834373451
:100360005F34563454345F34363400340A148A10FF
:100370000A1182074534523452344F3452345F34B8
:100380003034323434343A3420346C3461342034F0
:100390007634613472346934613462346C34653477
:1003A0002034583437345F34563454345F34363460
:1003B00000340A148A100A11820745345234523428
:1003C0004F3452345F343034333434343A3420349C
:1003D0006C3461342034763461347234693461347D
:1003E00062346C3465342034583436345F345634D7
:1003F00054345F34363400342330840083130008CF
:100400000319102A0130F800F701F70B052AF80B41
:10041000042A4A30F700F70B0B2A0E2A800B022A17
:1004200008002A18152A0612162A0616831606121E
:100430008312AA181D2A86121E2A86168316861271
:1004400083122A19252A0613262A0617831606134D
:100450008312AA192D2A86132E2A8617831686132D
:1004600000008312061483160610362A8312061023
:100470008316061083120800AB018316061600309F
:100480008312061A0130AB048316861600308312DD
:10049000861A0130F7000310F70D7708AB048316B6
:1004A000061700308312061B0130F700F70DF70D19
:1004B000FC30F7057708AB048316861700308312EB
:1004C000861B0130F700F70DF70DF70DF830F70533
:1004D0007708AB042B08F800080083160610861076
:1004E00006118312861083168610061686160617C6
:1004F0008617831206158316061100008312061450
:1005000083160610000083123C227808AA00061009
:1005100083160610000083120614831606100000CE
:1005200083123C227808A9000610831606100612D2
:1005300086120613861383122A0EF700F030F70591
:1005400077082904F8007808A900A91FA92A8316AA
:10055000752AA708031DAE2A8610AF2A86148316B3
:100560008610000083120611831606110000831204
:100570000610831606108312280EA9000F30A90555
:100580002908AA00112228080F39A900AA0011225F
:1005900008008316061286120613861306108610AC
:1005A0000611831286108316861083120611831695
:1005B000061183120610831606100F308312A30053
:1005C000FC210130A1002108033C031CEF2A033069
:1005D000AA0011220530A300FC21A10AE32A02305F
:1005E000AA0011220530A300FC21A1012108033C2F
:1005F000031C032B21080420A200A7012208A80045
:100600006D22A10AF62A492B240B072B0A2B403016
:10061000A5000B2BA50101302302A5072508803872
:10062000A600A7012608A8006D2208002208073AA4
:100630000319242B0B3A0319292B063A0319312BE2
:10064000023A0319372B3C2B0130A300A4000423EA
:10065000412BA7010130A8006D220230A300FC212C
:10066000412B0130A3000230A4000423412BA70139
:100670001030A8006D22412B0130A7002208A800ED
:100680006D22080003081F39830007309F00831381
:10069000C92A0130A300A4000423A10121080C20D1
:1006A000A10AF700A20016230F302102031D4E2BD2
:1006B0000130A3000230A4000423A101210820205E
:1006C000A10AF700A200162316302102031D5E2B9B
:1006D000831605148312051CA62B8316851483121A
:1006E0008518A62B8316051583120519A62B8316CC
:1006F000851583128519A62BA10121083B200038FE
:100700000319862BA10AA20016237D2B0130A3001A
:10071000A4000423A10121084120A10AF700A2009E
:10072000162309302102031D8B2B0130A300023058
:10073000A4000423A10121084F20A10AF700A20070
:1007400016231F302102031D9B2B4F2E83160514E9
:1007500083120518E42B831685148312851CE42B61
:100760008316051583120519E42B8316851583124C
:100770008519E42BA10121083B2000380319C42B63
:10078000A10AA2001623BB2B0130A300A40004235E
:10079000A10121084120A10AF700A2001623093077
:1007A0002102031DC92B0130A3000230A400042341
:1007B000A10121087320A10AF700A20016231F300F
:1007C0002102031DD92B4F2E831605148312051CFD
:1007D000222C831685148312851C222C8316051562
:1007E00083120519222C8316851583128519222C54
:1007F000A10121083B2000380319022CA10AA20004
:100800001623F92B0130A300A4000423A101210821
:100810004120A10AF700A200162309302102031D7E
:10082000072C0130A3000230A4000423A1012108F9
:100830009720A10AF700A20016231F302102031DF2
:10084000172C4F2E8316051483120518602C83165F
:10085000851483128518602C831605158312051DD7
:10086000602C8316851583128519602CA10121083F
:100870003B2000380319402CA10AA2001623372C74
:100880000130A300A4000423A10121084120A10AF2
:10089000F700A200162309302102031D452C013068
:1008A000A3000230A4000423A1012108BB20A10A57
:1008B000F700A20016231E302102031D552C4F2ED7
:1008C000831605148312051C9E2C8316851483122F
:1008D00085189E2C831605158312051D9E2C8316E4
:1008E0008515831285199E2CA10121083B20003813
:1008F00003197E2CA10AA2001623752C0130A30037
:10090000A4000423A10121084120A10AF700A200AC
:10091000162309302102031D832C0130A30002306D
:10092000A4000423A1012108DE20A10AF700A200EF
:1009300016231E302102031D932C4F2E83160514FF
:1009400083120518DC2C831685148312851CDC2C7D
:10095000831605158312051DDC2C8316851583125D
:100960008519DC2CA10121083B2000380319BC2C7F
:10097000A10AA2001623B32C0130A300A400042373
:10098000A10121084120A10AF700A2001623093085
:100990002102031DC12C0130A3000230A400042356
:1009A000A10121080421A10AF700A20016231E308C
:1009B0002102031DD12C4F2E831605148312051C12
:1009C0001A2D831685148312851C1A2D831605157E
:1009D0008312051D1A2D83168515831285191A2D6C
:1009E000A10121083B2000380319FA2CA10AA2001A
:1009F0001623F12C0130A300A4000423A101210837
:100A00004120A10AF700A200162309302102031D8C
:100A1000FF2C0130A3000230A4000423A10121080F
:100A20002721A10AF700A20016231F302102031D6F
:100A30000F2D4F2E8316051483120518582D83167B
:100A4000851483128518582D8316051583120519F0
:100A5000582D831685158312851D582DA101210857
:100A60003B2000380319382DA10AA20016232F2D90
:100A70000130A300A4000423A10121084120A10A00
:100A8000F700A200162309302102031D3D2D01307D
:100A9000A3000230A4000423A10121084B21A10AD4
:100AA000F700A20016231F302102031D4D2D4F2EEB
:100AB000831605148312051C962D83168514831244
:100AC0008518962D8316051583120519962D831604
:100AD00085158312851D962DA10121083B20003824
:100AE0000319762DA10AA20016236D2D0130A30053
:100AF000A4000423A10121084120A10AF700A200BB
:100B0000162309302102031D7B2D0130A300023082
:100B1000A4000423A10121086F21A10AF700A2006B
:100B200016231F302102031D8B2D4F2E8316051413
:100B300083120518D42D831685148312851CD42D99
:100B40008316051583120519D42D83168515831276
:100B5000851DD42DA10121083B2000380319B42D97
:100B6000A10AA2001623AB2D0130A300A400042388
:100B7000A10121084120A10AF700A2001623093093
:100B80002102031DB92D0130A3000230A40004236B
:100B9000A10121089321A10AF700A20016231E300B
:100BA0002102031DC92D4F2E831605148312051C27
:100BB000122E831685148312851C122E831605159A
:100BC00083120519122E831685158312851D122E88
:100BD000A10121083B2000380319F22DA10AA2002F
:100BE0001623E92D0130A300A4000423A10121084C
:100BF0004120A10AF700A200162309302102031D9B
:100C0000F72D0130A3000230A4000423A101210824
:100C1000B621A10AF700A20016231E302102031DEF
:100C2000072E4F2E83160514831205184F2E831698
:100C30008514831285184F2E831605158312051D02
:100C40004F2E831685158312851D4F2EA101210875
:100C50003B2000380319302EA10AA2001623272EAC
:100C60000130A300A4000423A10121084120A10A0E
:100C7000F700A200162309302102031D352E013092
:100C8000A3000230A4000423A1012108D921A10A54
:100C9000F700A20016231E302102031D452E63001B
:02400E00023F6F
:00000001FF
;PIC16F628A
;CRC=2D2B  CREATED="15-abr.-21 14:43"
