:1000000002308A00662A00000A108A100A1182074C
:1000100028340C34013406340A108A100A1182077D
:100020000C3400340A108A100A11820742346134F9
:100030006E3463346F342034643465342034503487
:1000400072347534653462346134733400340A10A8
:100050008A100A118207A134A134A13445345234E4
:1000600052344F34523421342134213400340A10B4
:100070008A100A1182074534523452344F345234B4
:100080005F343034313431343A34203458343134FC
:100090005F34563454345F343034353400340A100D
:1000A0008A100A1182074534523452344F34523484
:1000B0005F343034323431343A34203458343734C5
:1000C0005F34563454345F343034353400340A10DD
:1000D0008A100A1182074534523452344F34523454
:1000E0005F343034333431343A3420345834363495
:1000F0005F34563454345F343034353400340A10AD
:100100008A100A1182074534523452344F34523423
:100110005F343034313432343A342034583431346A
:100120005F34563454345F34363400340A108A1045
:100130000A1182074534523452344F3452345F34FA
:100140003034323432343A342034583437345F3433
:10015000563454345F34363400340A108A100A118D
:1001600082074534523452344F3452345F34303481
:10017000333432343A342034583436345F345634DD
:1001800054345F34363400340A108A100A1182075E
:100190004534523452344F3452345F343034313475
:1001A00033343A342034583431345F345634543490
:1001B0005F343034353400340A108A100A11820753
:1001C0004534523452344F3452345F343034323444
:1001D00033343A342034583437345F34563454345A
:1001E0005F343034353400340A108A100A11FB3E73
:1001F00003188A0A82004534523452344F34523440
:100200005F343034333433343A3420345834363471
:100210005F34563454345F343034353400340A1487
:100220008A100A1182074534523452344F34523402
:100230005F343034313434343A3420345834313447
:100240005F34563454345F34363400340A148A1020
:100250000A1182074534523452344F3452345F34D9
:100260003034323434343A342034583437345F3410
:10027000563454345F34363400340A148A100A1168
:1002800082074534523452344F3452345F34303460
:10029000333434343A342034583436345F345634BA
:1002A00054345F34363400340A148A100A11820739
:1002B0004534523452344F3452345F343034303455
:1002C00031343A342034503472346534703461340B
:1002D00072346134633469346F346E34203458348A
:1002E000313400340A148A100A118207453452341A
:1002F00052344F3452345F343034303432343A3440
:100300002034503472346534703461347234613462
:10031000633469346F346E342034583436340034E6
:1003200023308400831300080319A4290130F80046
:10033000F701F70B9929F80B98294A30F700F70BCA
:100340009F29A229800B962908002A0EF039F70070
:100350000F3006057704860000000614AF2906104A
:1003600008000608F700060E0F39F800080083168B
:10037000061086100611831286100F3083160605AC
:10038000F038860083120615000006140000B12123
:100390007808AA000610000006140000B1217808B1
:1003A000A90006100F3083160605860083122A0E58
:1003B000F700F030F70577082904F8007808A9005D
:1003C000A91BBD29271C86102718861400000611BA
:1003D00000000610280EA9000F30A9052908AA0060
:1003E000A52128080F39A900AA00A52108000F306F
:1003F00083160605860006108610061183128610E5
:10040000061106100F30A30090210130A100210831
:10041000033C031C132A0330AA00A5210530A300C6
:100420009021A10A072A0230AA00A5210530A300C5
:100430009021A1012108033C031C272A2108042044
:10044000A200A7012208A800B721A10A1A2A7C2A23
:10045000240B2B2A2E2A4030A5002F2AA50101307B
:100460002302A50725088038A600A7012608A800B2
:10047000B72108002208073A0319482A0B3A031942
:100480004D2A063A0319552A023A03195B2A602AB3
:100490000130A300A4002822652AA7010130A8008A
:1004A000B7210230A3009021652A0130A300023059
:1004B000A4002822652AA7011030A800B721652AC8
:1004C0000130A7002208A800B721080003081F393F
:1004D000830007309F0083138316051283120516CD
:1004E0000230A100FA30A3009021A10B722A8316DA
:1004F000051283120512F729A10121080C200038EA
:100500000319862AA10AA2003A227D2A0130A300FB
:10051000A4002822A10121081220A10AF700A200AC
:100520003A2210302102031D8B2A0130A300023031
:10053000A40028224530A2003A225630A2003A22D6
:100540005230A2003A22831605148312051CE22AB7
:100550008316851483128518E22A831605158312E3
:100560000519E22A8316851583128519E22AA1014D
:1005700021080C2000380319C12AA10AA2003A223E
:10058000B82A0130A300A4002822A10121082720B5
:10059000A10AF700A2003A220B302102031DC62A4D
:1005A0000130A3000230A4002822A1012108372035
:1005B000A10AF700A2003A2213302102031DD62A15
:1005C000152E142E8316051483120518212B83165D
:1005D00085148312851C212B83160515831205199A
:1005E000212B8316851583128519212BA101210842
:1005F0000C2000380319002BA10AA2003A22F72A86
:100600000130A300A4002822A10121082720A10A6B
:10061000F700A2003A220B302102031D052B013006
:10062000A3000230A4002822A10121084F20A10A22
:10063000F700A2003A2213302102031D152B152EBC
:10064000142E831605148312051C602B8316851443
:100650008312851C602B8316051583120519602BE8
:100660008316851583128519602BA10121080C20A2
:10067000003803193F2BA10AA2003A22362B013081
:10068000A300A4002822A10121082720A10AF70025
:10069000A2003A220B302102031D442B0130A3009B
:1006A0000230A4002822A10121086720A10AF70036
:1006B000A2003A2213302102031D542B152E142EB2
:1006C00083160514831205189F2B83168514831235
:1006D00085189F2B831605158312051D9F2B8316E6
:1006E0008515831285199F2BA10121080C20003844
:1006F00003197E2BA10AA2003A22752B0130A30018
:10070000A4002822A10121082720A10AF700A200A5
:100710003A220B302102031D832B0130A30002304B
:10072000A4002822A10121087F20A10AF700A2002D
:100730003A2212302102031D932B152E142E8316FC
:1007400005148312051CDE2B83168514831285186D
:10075000DE2B831605158312051DDE2B83168515EA
:1007600083128519DE2BA10121080C200038031902
:10077000BD2BA10AA2003A22B42B0130A300A40091
:100780002822A10121082720A10AF700A2003A226D
:100790000B302102031DC22B0130A3000230A40044
:1007A0002822A10121089620A10AF700A2003A22DE
:1007B00012302102031DD22B152E142E8316051480
:1007C000831205181D2C831685148312851C1D2C7D
:1007D000831605158312051D1D2C8316851583129E
:1007E00085191D2CA10121080C2000380319FC2BB0
:1007F000A10AA2003A22F32B0130A300A400282270
:10080000A10121082720A10AF700A2003A220B30FB
:100810002102031D012C0130A3000230A400282274
:10082000A1012108AD20A10AF700A2003A2212304E
:100830002102031D112C152E142E8316051483126C
:10084000051C5C2C831685148312851C5C2C831676
:1008500005158312051D5C2C8316851583128519D9
:100860005C2CA10121080C20003803193B2CA10AA3
:10087000A2003A22322C0130A300A4002822A101B8
:1008800021082720A10AF700A2003A220B302102FA
:10089000031D402C0130A3000230A4002822A10136
:1008A0002108C420A10AF700A2003A221330210235
:1008B000031D502C152E142E8316051483120518B3
:1008C0009B2C83168514831285189B2C8316051583
:1008D000831205199B2C831685158312851D9B2C6D
:1008E000A10121080C20003803197A2CA10AA200CA
:1008F0003A22712C0130A300A4002822A101210872
:100900002720A10AF700A2003A220B302102031D82
:100910007F2C0130A3000230A4002822A10121086D
:10092000DC20A10AF700A2003A2213302102031DA5
:100930008F2C152E142E831605148312051CDA2C09
:100940008316851483128518DA2C831605158312F5
:100950000519DA2C831685158312851DDA2CA10161
:1009600021080C2000380319B92CA10AA2003A2250
:10097000B02C0130A300A4002822A10121082720C7
:10098000A10AF700A2003A220B302102031DBE2C5F
:100990000130A3000230A4002822A1012108F42084
:1009A000A10AF700A2003A2213302102031DCE2C27
:1009B000152E142E8316051483120518192D83166F
:1009C00085148312851C192D8316051583120519AC
:1009D000192D831685158312851D192DA101210856
:1009E0000C2000380319F82CA10AA2003A22EF2C9F
:1009F0000130A300A4002822A10121082720A10A78
:100A0000F700A2003A220B302102031DFD2C013019
:100A1000A3000230A4002822A10121080F21A10A6D
:100A2000F700A2003A2212302102031D0D2D152ECF
:100A3000142E831605148312051C582D8316851455
:100A40008312851C582D8316051583120519582D00
:100A5000831685158312851D582DA10121080C20B0
:100A600000380319372DA10AA2003A222E2D013099
:100A7000A300A4002822A10121082720A10AF70031
:100A8000A2003A220B302102031D3C2D0130A300AD
:100A90000230A4002822A10121082621A10AF70082
:100AA000A2003A2212302102031D4C2D152E142EC5
:100AB0008316051483120518972D83168514831247
:100AC0008518972D831605158312051D972D8316FE
:100AD00085158312851D972DA10121080C20003852
:100AE0000319762DA10AA2003A226D2D0130A30030
:100AF000A4002822A10121082720A10AF700A200B2
:100B00003A220B302102031D7B2D0130A30002305D
:100B1000A4002822A10121083D21A10AF700A2007A
:100B20003A2212302102031D8B2D152E142E83160E
:100B300005148312051CD62D83168514831285187F
:100B4000D62D831605158312051DD62D8316851502
:100B50008312851DD62DA10121080C200038031910
:100B6000B52DA10AA2003A22AC2D0130A300A400A9
:100B70002822A10121082720A10AF700A2003A2279
:100B80000B302102031DBA2D0130A3000230A40056
:100B90002822A10121085421A10AF700A2003A222B
:100BA00019302102031DCA2D152E142E831605148B
:100BB00083120518142E831685148312851C142E97
:100BC000831605158312051D142E831685158312B1
:100BD000851D142EA10121080C2000380319F42DC5
:100BE000A10AA2003A22EB2D0130A300A400282282
:100BF000A10121082720A10AF700A2003A220B3008
:100C00002102031DF92D0130A3000230A400282287
:100C1000A10121087221A10AF700A2003A2219308D
:0C0C20002102031D092E152E862A6300F8
:02400E00113F60
:00000001FF
;PIC16F628A
;CRC=FC41  CREATED="04-may.-21 13:13"
