:1000000003308A00422B00000A108A100A1182076E
:1000100028340C34013406340A108A100A1182077D
:100020000C3400340A108A100A11820745347334E4
:1000300070346534723461346E3464346F34203417
:100040004534523452344F34523400340A108A103A
:100050000A11820752346534673469347334743456
:100060007234613464346F347234203464346534EF
:1000700020344534763465346E3474346F347334DC
:1000800000340A108A100A1182074534723472341F
:100090006F347234203465346E343A3400340A10CC
:1000A0008A100A1182074534523452344F34523484
:1000B0005F343034313431343A3420346C34613488
:1000C00020347634613472346934613462346C348F
:1000D00065342034583431345F34563454345F340A
:1000E0003034353400340A108A100A11820745343E
:1000F000523452344F3452345F3430343234313429
:100100003A3420346C3461342034763461347234BF
:100110006934613462346C34653420345834373493
:100120005F34563454345F343034353400340A107C
:100130008A100A1182074534523452344F345234F3
:100140005F343034333431343A3420346C346134F5
:1001500020347634613472346934613462346C34FE
:1001600065342034583436345F34563454345F3474
:100170003034353400340A108A100A1182074534AD
:10018000523452344F3452345F3430343134323498
:100190003A3420346C34613420347634613472342F
:1001A0006934613462346C34653420345834313409
:1001B0005F34563454345F34363400340A108A10B5
:1001C0000A11E53E03188A0A82004534523452343B
:1001D0004F3452345F343034323432343A34203491
:1001E0006C3461342034763461347234693461346F
:1001F00062346C3465342034583437345F345634C8
:1002000054345F34363400340A148A100A118207D9
:100210004534523452344F3452345F3430343334F2
:1002200032343A3420346C346134203476346134DE
:1002300072346934613462346C3465342034583437
:1002400036345F34563454345F34363400340A1450
:100250008A100A1182074534523452344F345234D2
:100260005F343034313433343A3420346C346134D4
:1002700020347634613472346934613462346C34DD
:1002800065342034583437345F34563454345F3452
:100290003034353400340A148A100A118207453488
:1002A000523452344F3452345F3430343234333475
:1002B0003A3420346C34613420347634613472340E
:1002C0006934613462346C346534203458343734E2
:1002D0005F34563454345F343034353400340A14C7
:1002E0008A100A1182074534523452344F34523442
:1002F0005F343034333433343A3420346C34613442
:1003000020347634613472346934613462346C344C
:1003100065342034583436345F34563454345F34C2
:100320003034353400340A148A100A1182074534F7
:10033000523452344F3452345F34303431343434E4
:100340003A3420346C34613420347634613472347D
:100350006934613462346C34653420345834373451
:100360005F34563454345F34363400340A148A10FF
:100370000A1182074534523452344F3452345F34B8
:100380003034323434343A3420346C3461342034F0
:100390007634613472346934613462346C34653477
:1003A0002034583437345F34563454345F34363460
:1003B00000340A148A100A11820745345234523428
:1003C0004F3452345F343034333434343A3420349C
:1003D0006C3461342034763461347234693461347D
:1003E00062346C3465342034583436345F345634D7
:1003F00054345F34363400342330840083130008CF
:100400000319102A0130F800F701F70B052AF80B41
:10041000042A4A30F700F70B0B2A0E2A800B022A17
:1004200008002A18152A0612162A0616831606121E
:100430008312AA181D2A86121E2A86168316861271
:1004400083122A19252A0613262A0617831606134D
:100450008312AA192D2A86132E2A8617831686132D
:1004600000008312061483160610362A8312061023
:100470008316061083120800AB018316061600309F
:100480008312061A0130AB048316861600308312DD
:10049000861A0130F7000310F70D7708AB048316B6
:1004A000061700308312061B0130F700F70DF70D19
:1004B000FC30F7057708AB048316861700308312EB
:1004C000861B0130F700F70DF70DF70DF830F70533
:1004D0007708AB042B08F800080083160610861076
:1004E00006118312861083168610061686160617C6
:1004F0008617831206158316061100008312061450
:1005000083160610000083123C227808AA00061009
:1005100083160610000083120614831606100000CE
:1005200083123C227808A9000610831606100612D2
:1005300086120613861383122A0EF700F030F70591
:1005400077082904F8007808A900A91FA92A8316AA
:10055000752AA708031DAE2A8610AF2A86148316B3
:100560008610000083120611831606110000831204
:100570000610831606108312280EA9000F30A90555
:100580002908AA00112228080F39A900AA0011225F
:1005900008008316061286120613861306108610AC
:1005A0000611831286108316861083120611831695
:1005B000061183120610831606100F308312A30053
:1005C000FC210130A1002108033C031CEF2A033069
:1005D000AA0011220530A300FC21A10AE32A02305F
:1005E000AA0011220530A300FC21A1012108033C2F
:1005F000031C032B21080420A200A7012208A80045
:100600006D22A10AF62A492B240B072B0A2B403016
:10061000A5000B2BA50101302302A5072508803872
:10062000A600A7012608A8006D2208002208073AA4
:100630000319242B0B3A0319292B063A0319312BE2
:10064000023A0319372B3C2B0130A300A4000423EA
:10065000412BA7010130A8006D220230A300FC212C
:10066000412B0130A3000230A4000423412BA70139
:100670001030A8006D22412B0130A7002208A800ED
:100680006D22080003081F39830007309F00831381
:10069000C92AA10121080C2000380319532BA10AF3
:1006A000A20016234A2B0130A300A4000423A101B9
:1006B00021081220A10AF700A20016230F30210200
:1006C000031D582B0130A3000230A4000423A10114
:1006D00021082620A10AF700A200162316302102C5
:1006E000031D682B831605148312051CB12B83167A
:1006F000851483128518B12B8316051583120519ED
:10070000B12B8316851583128519B12BA101210800
:100710000C2000380319902BA10AA2001623872B66
:100720000130A300A4000423A10121084120A10A53
:10073000F700A200162309302102031D952B01307A
:10074000A3000230A4000423A10121084F20A10A24
:10075000F700A20016231F302102031DA52B662ED1
:10076000652E8316051483120518F02B8316851445
:100770008312851CF02B8316051583120519F02BA7
:100780008316851583128519F02BA10121080C20F1
:1007900000380319CF2BA10AA2001623C62B013063
:1007A000A300A4000423A10121084120A10AF7000D
:1007B000A200162309302102031DD42B0130A3000F
:1007C0000230A4000423A10121087320A10AF7002C
:1007D000A20016231F302102031DE42B662E652E76
:1007E000831605148312051C2F2C8316851483127F
:1007F000851C2F2C83160515831205192F2C8316A3
:100800008515831285192F2CA10121080C20003891
:1008100003190E2CA10AA2001623052C0130A300F7
:10082000A4000423A10121084120A10AF700A2008D
:10083000162309302102031D132C0130A3000230BE
:10084000A4000423A10121089720A10AF700A20017
:1008500016231F302102031D232C662E652E8316BE
:100860000514831205186E2C8316851483128518BF
:100870006E2C831605158312051D6E2C83168515A7
:10088000831285196E2CA10121080C200038031950
:100890004D2CA10AA2001623442C0130A300A40071
:1008A0000423A10121084120A10AF700A200162378
:1008B00009302102031D522C0130A3000230A40094
:1008C0000423A1012108BB20A10AF700A2001623DE
:1008D0001E302102031D622C662E652E8316051420
:1008E0008312051CAD2C8316851483128518AD2C3C
:1008F000831605158312051DAD2C831685158312ED
:100900008519AD2CA10121080C20003803198C2C6D
:10091000A10AA2001623832C0130A300A400042303
:10092000A10121084120A10AF700A20016230930E5
:100930002102031D912C0130A3000230A4000423E6
:10094000A1012108DE20A10AF700A20016231E3013
:100950002102031DA12C662E652E83160514831219
:100960000518EC2C831685148312851CEC2C831639
:1009700005158312051DEC2C831685158312851928
:10098000EC2CA10121080C2000380319CB2CA10A62
:10099000A2001623C22C0130A300A4000423A1014D
:1009A00021084120A10AF700A200162309302102E4
:1009B000031DD02C0130A3000230A4000423A101A8
:1009C00021080421A10AF700A20016231E302102EB
:1009D000031DE02C662E652E831605148312051C5C
:1009E0002B2D831685148312851C2B2D831605153C
:1009F0008312051D2B2D83168515831285192B2D2A
:100A0000A10121080C20003803190A2DA10AA20017
:100A10001623012D0130A300A4000423A101210805
:100A20004120A10AF700A200162309302102031D6C
:100A30000F2D0130A3000230A4000423A1012108DE
:100A40002721A10AF700A20016231F302102031D4F
:100A50001F2D662E652E83160514831205186A2D28
:100A600083168514831285186A2D83160515831243
:100A700005196A2D831685158312851D6A2DA1011E
:100A800021080C2000380319492DA10AA2001623C1
:100A9000402D0130A300A4000423A101210841201E
:100AA000A10AF700A200162309302102031D4E2DD2
:100AB0000130A3000230A4000423A10121084B212E
:100AC000A10AF700A20016231F302102031D5E2D8C
:100AD000662E652E831605148312051CA92D831618
:100AE000851483128518A92D8316051583120519FF
:100AF000A92D831685158312851DA92DA101210815
:100B00000C2000380319882DA10AA20016237F2D7E
:100B10000130A300A4000423A10121084120A10A5F
:100B2000F700A200162309302102031D8D2D01308C
:100B3000A3000230A4000423A10121086F21A10A0F
:100B4000F700A20016231F302102031D9D2D662EE3
:100B5000652E8316051483120518E82D8316851457
:100B60008312851CE82D8316051583120519E82DBF
:100B7000831685158312851DE82DA10121080C20FF
:100B800000380319C72DA10AA2001623BE2D01307B
:100B9000A300A4000423A10121084120A10AF70019
:100BA000A200162309302102031DCC2D0130A30021
:100BB0000230A4000423A10121089321A10AF70017
:100BC000A20016231E302102031DDC2D662E652E89
:100BD000831605148312051C272E83168514831291
:100BE000851C272E8316051583120519272E8316BB
:100BF00085158312851D272EA10121080C200038A0
:100C00000319062EA10AA2001623FD2D0130A30010
:100C1000A4000423A10121084120A10AF700A20099
:100C2000162309302102031D0B2E0130A3000230D0
:100C3000A4000423A1012108B621A10AF700A20003
:100C400016231E302102031D1B2E662E652E8316D1
:100C5000051483120518652E8316851483128518D2
:100C6000652E831605158312051D652E83168515C1
:100C70008312851D652EA10121080C20003803195F
:100C8000452EA10AA20016233C2E0130A300A40089
:100C90000423A10121084120A10AF700A200162384
:100CA00009302102031D4A2E0130A3000230A400A6
:100CB0000423A1012108D921A10AF700A2001623CB
:0E0CC0001E302102031D5A2E662E532B630098
:02400E00023F6F
:00000001FF
;PIC16F628A
;CRC=3A41  CREATED="15-abr.-21 19:29"
