:1000000002308A00D22A00000A108A100A118207E0
:1000100028340C34013406340A108A100A1182077D
:100020000C3400340A108A100A11820745347334E4
:1000300070346534723461346E3464346F34203417
:100040004534523452344F34523400340A108A103A
:100050000A11820752346534673469347334743456
:100060007234613464346F347234203464346534EF
:1000700020344534763465346E3474346F347334DC
:1000800000340A108A100A1182074534723472341F
:100090006F347234203465346E343A3400340A10CC
:1000A0008A100A1182074534523452344F34523484
:1000B0005F343034313431343A3420346C34613488
:1000C00020347634613472346934613462346C348F
:1000D00065342034583431345F34563454345F340A
:1000E0003034353400340A108A100A11820745343E
:1000F000523452344F3452345F3430343234313429
:100100003A3420346C3461342034763461347234BF
:100110006934613462346C34653420345834373493
:100120005F34563454345F343034353400340A107C
:100130008A100A1182074534523452344F345234F3
:100140005F343034333431343A3420346C346134F5
:1001500020347634613472346934613462346C34FE
:1001600065342034583436345F34563454345F3474
:100170003034353400340A108A100A1182074534AD
:10018000523452344F3452345F3430343134323498
:100190003A3420346C34613420347634613472342F
:1001A0006934613462346C34653420345834313409
:1001B0005F34563454345F34363400340A108A10B5
:1001C0000A11E53E03188A0A82004534523452343B
:1001D0004F3452345F343034323432343A34203491
:1001E0006C3461342034763461347234693461346F
:1001F00062346C3465342034583437345F345634C8
:1002000054345F34363400340A148A100A118207D9
:100210004534523452344F3452345F3430343334F2
:1002200032343A3420346C346134203476346134DE
:1002300072346934613462346C3465342034583437
:1002400036345F34563454345F34363400340A1450
:100250008A100A1182074534523452344F345234D2
:100260005F343034313433343A3420346C346134D4
:1002700020347634613472346934613462346C34DD
:1002800065342034583437345F34563454345F3452
:100290003034353400340A148A100A118207453488
:1002A000523452344F3452345F3430343234333475
:1002B0003A3420346C34613420347634613472340E
:1002C0006934613462346C346534203458343734E2
:1002D0005F34563454345F343034353400340A14C7
:1002E0008A100A1182074534523452344F34523442
:1002F0005F343034333433343A3420346C34613442
:1003000020347634613472346934613462346C344C
:1003100065342034583436345F34563454345F34C2
:100320003034353400340A148A100A1182074534F7
:10033000523452344F3452345F34303431343434E4
:100340003A3420346C34613420347634613472347D
:100350006934613462346C34653420345834373451
:100360005F34563454345F34363400340A148A10FF
:100370000A1182074534523452344F3452345F34B8
:100380003034323434343A3420346C3461342034F0
:100390007634613472346934613462346C34653477
:1003A0002034583437345F34563454345F34363460
:1003B00000340A148A100A11820745345234523428
:1003C0004F3452345F343034333434343A3420349C
:1003D0006C3461342034763461347234693461347D
:1003E00062346C3465342034583436345F345634D7
:1003F00054345F34363400342330840083130008CF
:100400000319102A0130F800F701F70B052AF80B41
:10041000042A4A30F700F70B0B2A0E2A800B022A17
:1004200008002A0EF039F7000F3006057704860021
:10043000000006141B2A061008000608F700060E26
:100440000F39F80008008316061086100611831273
:1004500086100F3083160605F038860083120615C5
:100460000000061400001D227808AA0006100000F3
:10047000061400001D227808A90006100F3083160C
:100480000605860083122A0EF700F030F70577087C
:100490002904F8007808A900A91B292A271C86101E
:1004A000271886140000061100000610280EA90067
:1004B0000F30A9052908AA00112228080F39A90020
:1004C000AA00112208000F308316060586000610C8
:1004D0008610061183128610061106100F30A30035
:1004E000FC210130A1002108033C031C7F2A0330BA
:1004F000AA0011220530A300FC21A10A732A0230B0
:10050000AA0011220530A300FC21A1012108033C0F
:10051000031C932A21080420A200A7012208A80096
:100520002322A10A862AD92A240B972A9A2A403004
:10053000A5009B2AA50101302302A50725088038C4
:10054000A600A7012608A800232208002208073ACF
:100550000319B42A0B3A0319B92A063A0319C12A16
:10056000023A0319C72ACC2A0130A300A40094221E
:10057000D12AA7010130A80023220230A300FC21C8
:10058000D12A0130A3000230A4009422D12AA7016D
:100590001030A8002322D12A0130A7002208A80089
:1005A0002322080003081F39830007309F008313AC
:1005B000632AA10121080C2000380319E32AA10AAB
:1005C000A200A622DA2A0130A300A4009422A101ED
:1005D00021081220A10AF700A200A6220F30210252
:1005E000031DE82A0130A3000230A4009422A101D7
:1005F00021082620A10AF700A200A6221630210217
:10060000031DF82A831605148312051C412B83163B
:10061000851483128518412B83160515831205193D
:10062000412B8316851583128519412BA1012108C1
:100630000C2000380319202BA10AA200A622172B98
:100640000130A300A4009422A10121084120A10AA5
:10065000F700A200A62209302102031D252B01303C
:10066000A3000230A4009422A10121084F20A10A76
:10067000F700A200A6221F302102031D352BF62D04
:10068000F52D8316051483120518802B8316851407
:100690008312851C802B8316051583120519802B68
:1006A0008316851583128519802BA10121080C2042
:1006B000003803195F2BA10AA200A622562B013095
:1006C000A300A4009422A10121084120A10AF7005F
:1006D000A200A62209302102031D642B0130A300D1
:1006E0000230A4009422A10121087320A10AF7007E
:1006F000A200A6221F302102031D742BF62DF52D1A
:10070000831605148312051CBF2B831685148312D0
:10071000851CBF2B8316051583120519BF2B831665
:10072000851583128519BF2BA10121080C200038E3
:1007300003199E2BA10AA200A622952B0130A3002B
:10074000A4009422A10121084120A10AF700A200DF
:10075000A62209302102031DA32B0130A300023081
:10076000A4009422A10121089720A10AF700A20069
:10077000A6221F302102031DB32BF62DF52D831663
:10078000051483120518FE2B831685148312851811
:10079000FE2B831605158312051DFE2B831685156A
:1007A00083128519FE2BA10121080C2000380319A2
:1007B000DD2BA10AA200A622D42B0130A300A400A5
:1007C0009422A10121084120A10AF700A200A6223B
:1007D00009302102031DE22B0130A3000230A400E6
:1007E0009422A1012108BB20A10AF700A200A622A1
:1007F0001E302102031DF22BF62DF52D8316051454
:100800008312051C3D2C83168514831285183D2CFC
:10081000831605158312051D3D2C8316851583123D
:1008200085193D2CA10121080C20003803191C2C2E
:10083000A10AA200A622132C0130A300A400942236
:10084000A10121084120A10AF700A200A622093037
:100850002102031D212C0130A3000230A4009422A8
:10086000A1012108DE20A10AF700A200A6221E3065
:100870002102031D312CF62DF52D8316051483124C
:1008800005187C2C831685148312851C7C2C8316FA
:1008900005158312051D7C2C831685158312851979
:1008A0007C2CA10121080C20003803195B2CA10A23
:1008B000A200A622522C0130A300A4009422A10180
:1008C00021084120A10AF700A200A6220930210236
:1008D000031D602C0130A3000230A4009422A1016A
:1008E00021080421A10AF700A200A6221E3021023D
:1008F000031D702CF62DF52D831605148312051C8F
:10090000BB2C831685148312851CBB2C83160515FE
:100910008312051DBB2C8316851583128519BB2CEC
:10092000A10121080C20003803199A2CA10AA20069
:10093000A622912C0130A300A4009422A101210839
:100940004120A10AF700A200A62209302102031DBE
:100950009F2C0130A3000230A4009422A1012108A1
:100960002721A10AF700A200A6221F302102031DA1
:10097000AF2CF62DF52D8316051483120518FA2CCD
:100980008316851483128518FA2C83160515831295
:100990000519FA2C831685158312851DFA2CA101E1
:1009A00021080C2000380319D92CA10AA200A62284
:1009B000D02C0130A300A4009422A10121084120E1
:1009C000A10AF700A200A62209302102031DDE2C95
:1009D0000130A3000230A4009422A10121084B2180
:1009E000A10AF700A200A6221F302102031DEE2C4F
:1009F000F62DF52D831605148312051C392D83164B
:100A0000851483128518392D83160515831205194F
:100A1000392D831685158312851D392DA1012108D5
:100A20000C2000380319182DA10AA200A6220F2DB0
:100A30000130A300A4009422A10121084120A10AB1
:100A4000F700A200A62209302102031D1D2D01304E
:100A5000A3000230A4009422A10121086F21A10A61
:100A6000F700A200A6221F302102031D2D2DF62D16
:100A7000F52D8316051483120518782D8316851419
:100A80008312851C782D8316051583120519782D80
:100A9000831685158312851D782DA10121080C2050
:100AA00000380319572DA10AA200A6224E2D0130AD
:100AB000A300A4009422A10121084120A10AF7006B
:100AC000A200A62209302102031D5C2D0130A300E3
:100AD0000230A4009422A10121089321A10AF70069
:100AE000A200A6221E302102031D6C2DF62DF52D2D
:100AF000831605148312051CB72D831685148312E3
:100B0000851CB72D8316051583120519B72D83167D
:100B100085158312851DB72DA10121080C200038F1
:100B20000319962DA10AA200A6228D2D0130A30043
:100B3000A4009422A10121084120A10AF700A200EB
:100B4000A62209302102031D9B2D0130A300023093
:100B5000A4009422A1012108B621A10AF700A20055
:100B6000A6221E302102031DAB2DF62DF52D831676
:100B7000051483120518F52D831685148312851824
:100B8000F52D831605158312051DF52D8316851584
:100B90008312851DF52DA10121080C2000380319B1
:100BA000D52DA10AA200A622CC2D0130A300A400BD
:100BB0009422A10121084120A10AF700A200A62247
:100BC00009302102031DDA2D0130A3000230A400F8
:100BD0009422A1012108D921A10AF700A200A6228E
:0E0BE0001E302102031DEA2DF62DE32A6300CC
:02400E00613F10
:00000001FF
;PIC16F628A
;CRC=026E  CREATED="15-abr.-21 12:27"
